:100000000A128A11D62F08000330F3009730F2004D
:10001000F20B0828F30B08280D28831203131F1571
:100020001F191328142810281E08F1008316031323
:100030001E08F00008003F3083160313CC00803008
:10004000CB000030CA000030C900B001B10148083F
:10005000F3004708F2004608F1004508F0000030C0
:10006000F7000030F6000030F5000030F4000A160A
:100070008A15AF260A128A1103183F2840286F2AD2
:100080005128831603133708CC003608CB003508F7
:10009000CA003408C9000130B0070318B10A0030A3
:1000A000B107413083120313A3002030A2000030B7
:1000B000A1000030A000831603134C088312031321
:1000C000A700831603134B0883120313A60083169D
:1000D00003134A0883120313A50083160313490868
:1000E00083120313A4000A128A15BB240A128A1170
:1000F00083120313230883160313B7008312031319
:10010000220883160313B6008312031321088316F3
:100110000313B50083120313200883160313B400DE
:10012000450883120313DF00831603134608831266
:100130000313E00083160313470883120313E1003F
:1001400083160313480883120313E2008316031374
:10015000340883120313DF02831603133508031CCC
:10016000350FB328B62883120313E0028316031356
:100170003608031C360FBD28C02883120313E10282
:10018000831603133708031C370FC728CA288312A6
:100190000313E20283160313831203136208F300AE
:1001A0006108F2006008F1005F08F0000A168A1585
:1001B00074240A128A11F31BED287308031DEE281C
:1001C0007208031DEE287108031DEE28023070022C
:1001D000031DEA28031CED28EE284128831603138B
:1001E000370883120313D1008316031336088312D2
:1001F0000313D00083160313350883120313CF00B3
:1002000083160313340883120313CE0083160313DB
:10021000480883120313D50083160313470883127B
:100220000313D40083160313460883120313D30069
:1002300083160313450883120313D2000A168A118A
:1002400020210A128A11031C2629272941288316F6
:100250000313450883120313DF00831603134608B4
:1002600083120313E000831603134708831203135A
:10027000E10083160313480883120313E200831678
:100280000313490883120313DF02831603134A087A
:10029000031C4A0F4C294F2983120313E0028316D3
:1002A00003134B08031C4B0F5629592983120313C0
:1002B000E102831603134C08031C4C0F60296329C9
:1002C00083120313E20283160313831203136208DB
:1002D000F3006108F2006008F1005F08F0000A1600
:1002E0008A1574240A128A11F31B87297308031DC7
:1002F00086297208031D86297108031D862902308C
:100300007002031D8329031886298729362A83163C
:1003100003134C08C8004B08C7004A08C600490828
:10032000C5006F2A413083120313A3002030A200BE
:100330000030A1000030A000831603134C08831284
:100340000313A700831603134B0883120313A6009D
:10035000831603134A0883120313A500831603139D
:10036000490883120313A4000A128A1513200A12E3
:100370008A1183120313230883160313CC008312FC
:100380000313220883160313CB00831203132108DF
:1003900083160313CA008312031320088316031362
:1003A000C900FF30B0070318B10AFF30B107450894
:1003B00083120313DF00831603134608831203130B
:1003C000E00083160313470883120313E10083162A
:1003D0000313480883120313E2008316031349082A
:1003E00083120313DF02831603134A08031C4A0F08
:1003F000FA29FD2983120313E002831603134B0825
:10040000031C4B0F042A072A83120313E1028316ED
:1004100003134C08031C4C0F0E2A112A83120313DA
:10042000E20283160313831203136208F3006108C8
:10043000F2006008F1005F08F0000A168A157424C3
:100440000A128A11F31B352A7308031D342A720815
:10045000031D342A7108031D342A02307002031D63
:10046000312A0318342A352A362A8729831603139A
:10047000480883120313D10083160313470883121D
:100480000313D00083160313460883120313CF000F
:1004900083160313450883120313CE008316031338
:1004A0004C0883120313D500831603134B088312E1
:1004B0000313D400831603134A0883120313D300D3
:1004C00083160313490883120313D2000A168A11F4
:1004D00020210A128A11031C6E2A6F2A9229831284
:1004E00003135E0883160313A9002908AA00EC1B56
:1004F0007A2A7B2A802A6C08A3006B08A200842A2F
:100500000630A2000030A3002308AE002208AD0090
:100510000130AD070318AE0A0030AE0766302A0678
:10052000031D932A942AAE2AB11F972A982AA22A39
:100530003F30CC008030CB000030CA000030C90012
:10054000B001B101673029060319A72AA82AAE2AEB
:100550003008AD070318AE0A3108AE07B801B9017B
:100560004808BD004708BC004608BB004508BA0063
:100570004C08B7004B08B6004A08B5004908B4005B
:10058000E72B831603134C0883120313A30083166F
:1005900003134B0883120313A200831603134A08A4
:1005A00083120313A1008316031349088312031354
:1005B000A000831603133D0883120313A7008316BC
:1005C00003133C0883120313A600831603133B088E
:1005D00083120313A500831603133A08831203132F
:1005E000A4000A128A1513200A128A118312031317
:1005F0002308BD002208BC002108BB002008BA0067
:100600000A168A1188230A128A11831203133D08DD
:1006100083160313C100831203133C0883160313CC
:10062000C000831203133B0883160313BF00831219
:1006300003133A0883160313BE004108F300400871
:10064000F2003F08F1003E08F0000A168A111D2052
:100650000A128A11710883160313AC007008AB00EC
:100660004C0883120313A700831603134B0883124D
:100670000313A600831603134A0883120313A5006D
:1006800083160313490883120313A400831603136C
:10069000410883120313A300831603134008831237
:1006A0000313A200831603133F0883120313A10050
:1006B000831603133E0883120313A0000A128A153F
:1006C000BB240A128A11831203132308D1002208C3
:1006D000D0002108CF002008CE00831603133D0868
:1006E00083120313D500831603133C0883120313EC
:1006F000D400831603133B0883120313D30083161D
:1007000003133A0883120313D2000A168A15DF2452
:100710000A128A1183120313510883160313BD00B2
:1007200083120313500883160313BC0083120313B0
:100730004F0883160313BB00831203134E0883165E
:100740000313BA00413083120313A3002030A20028
:100750000030A1000030A000831603134C08831260
:100760000313A700831603134B0883120313A60079
:10077000831603134A0883120313A5008316031379
:10078000490883120313A4000A128A1513200A12BF
:100790008A1183120313230883160313CC008312D8
:1007A0000313220883160313CB00831203132108BB
:1007B00083160313CA00831203132008831603133E
:1007C000C9000130B8070318B90A0030B907390861
:1007D000803A83120313DF00831603132E08803A36
:1007E000831203135F02031DF92B831603132D08D5
:1007F0003802031CFC2BFD2BC12A4030831203134B
:10080000A300A030A2000030A1000030A000831699
:1008100003134C0883120313A700831603134B081A
:1008200083120313A600831603134A0883120313CB
:10083000A50083160313490883120313A4000A12A8
:100840008A15BB240A128A11831203132308831604
:100850000313C10083120313220883160313C0007D
:1008600083120313210883160313BF00831203139B
:10087000200883160313BE003D0883120313D10022
:10088000831603133C0883120313D000831603134B
:100890003B0883120313CF00831603133A08831215
:1008A0000313CE0083160313410883120313D500EC
:1008B00083160313400883120313D4008316031313
:1008C0003F0883120313D300831603133E088312D9
:1008D0000313D2000A168A1120210A128A11031862
:1008E000722C732C7E2C003083160313C100003051
:1008F000C0000030BF000030BE00A72C83160313D9
:100900003D08F3003C08F2003B08F1003A08F00013
:100910004108F7004008F6003F08F5003E08F400E3
:100920000A168A15AF260A128A11031C982C992CD4
:10093000A72C831603132B189E2C9F2CA72C00305A
:10094000C1000030C0000030BF000030BE00831680
:100950000313410883120313BD00831603134008D9
:1009600083120313BC00831603133F08831203137F
:10097000BB00831603133E0883120313BA008316C9
:100980000313480883120313C10083160313470897
:1009900083120313C0008316031346088312031344
:1009A000BF0083160313450883120313BE000A1603
:1009B0008A11A8250A128A11831203133D0883168F
:1009C0000313BD00831203133C0883160313BC00FA
:1009D000831203133B0883160313BB008312031314
:1009E0003A0883160313BA003D0883120313D1009B
:1009F000831603133C0883120313D00083160313DA
:100A00003B0883120313CF00831603133A088312A3
:100A10000313CE004130A3002030A2000030A1001B
:100A20000030A00083160313370883120313A700B6
:100A300083160313360883120313A60083160313C9
:100A4000350883120313A500831603133408831299
:100A50000313A4000A128A15BB240A128A118312F6
:100A600003132308D5002208D4002108D30020084E
:100A7000D2000A168A1120210A128A11031C412D64
:100A8000422D952D013083160313B0070318B10AC8
:100A90000030B107413083120313A3002030A200BD
:100AA0000030A1000030A000831603133708831222
:100AB0000313A70083160313360883120313A6003B
:100AC00083160313350883120313A500831603133B
:100AD000340883120313A4000A128A15BB240A12D5
:100AE0008A1183120313230883160313B70083129A
:100AF0000313220883160313B6008312031321087D
:100B000083160313B50083120313200883160313FF
:100B1000B40066302A06031D8E2D8F2D952D0130D1
:100B2000AD070318AE0A0030AE078316031337086B
:100B3000CC003608CB003508CA003408C90031089B
:100B4000A1003008A000A801A401A501B801B901C5
:100B5000472F831603134C0883120313A300831635
:100B600003134B0883120313A200831603134A08CE
:100B700083120313A100831603134908831203137E
:100B8000A000831603133D0883120313A7008316E6
:100B900003133C0883120313A600831603133B08B8
:100BA00083120313A500831603133A088312031359
:100BB000A4000A128A1513200A128A118312031341
:100BC0002308BD002208BC002108BB002008BA0091
:100BD0000A168A1188230A128A11831203133D0808
:100BE00083160313C100831203133C0883160313F7
:100BF000C000831203133B0883160313BF00831244
:100C000003133A0883160313BE004108F30040089B
:100C1000F2003F08F1003E08F0000A168A111D207C
:100C20000A128A117108803AFF0080307F02031D8A
:100C30001B2E0A30700203181E2E1F2E352E83160F
:100C400003134108F3004008F2003F08F1003E089A
:100C5000F0000A168A111D200A128A1171088316E3
:100C60000313AC007008AB003B2E0930831603134E
:100C7000AB000030AC002808031D3F2E402E712E23
:100C8000A11F432E442E712E4308103E84002E30A7
:100C9000831780000130C3070318C40A0030C4075B
:100CA000FF30B2070318B30AFF30B307A801A80A40
:100CB000712E4308103E84003030831780000130CD
:100CC000C3070318C40A0030C407FF30B207031873
:100CD000B30AFF30B307FF30A4070318A50AFF309B
:100CE000A50724082504031D762E772E592E4308C8
:100CF000103E84002B08303E831780000130C3076C
:100D00000318C40A0030C407FF30B2070318B30A3F
:100D1000FF30B3074C0883120313A7008316031395
:100D20004B0883120313A600831603134A08831289
:100D30000313A50083160313490883120313A400A9
:100D400083160313410883120313A30083160313AE
:100D5000400883120313A200831603133F08831273
:100D60000313A100831603133E0883120313A0008C
:100D70000A128A15BB240A128A118312031323084C
:100D8000D1002208D0002108CF002008CE00831611
:100D900003133D0883120313D500831603133C0885
:100DA00083120313D400831603133B088312031327
:100DB000D300831603133A0883120313D2000A16D2
:100DC0008A15DF240A128A1183120313510883162D
:100DD0000313BD0083120313500883160313BC00D2
:100DE000831203134F0883160313BB0083120313EC
:100DF0004E0883160313BA00413083120313A30075
:100E00002030A2000030A1000030A00083160313A0
:100E10004C0883120313A700831603134B08831295
:100E20000313A600831603134A0883120313A500B5
:100E300083160313490883120313A4000A128A15A8
:100E400013200A128A118312031323088316031333
:100E5000CC0083120313220883160313CB008312E2
:100E60000313210883160313CA00831203132008F7
:100E700083160313C900FF30A0070318A10AFF302F
:100E8000A1070130B8070318B90A0030B9073908BB
:100E9000803A83120313DF00831603132E08803A6F
:100EA000831203135F02031D592F831603132D08AA
:100EB000380203185C2F5D2F6C2F83160313440830
:100EC000803AFF0080307F02031D682F4B304302C1
:100ED000031C6B2F6C2FA92D4F3083160313B80002
:100EE0000030B9003808103E8400831780011030AC
:100EF000F0004408F2004308F1001030831203139D
:100F0000DF0083160313430883120313DF028316E3
:100F100003133808831203135F070A168A1528255E
:100F20000A128A118316031343083802C3004408C7
:100F3000031C440A3902C4004208031DA02FA22F3B
:100F40000130A32F003083120313DF00E0015F089C
:100F500083160313B8008312031360088316031368
:100F6000B90042080319B52FB62FC22FFF30C307AF
:100F70000318C40AFF30C4074308103E8400420827
:100F8000831780003808B2023908031CB303B30288
:100F90004308103EFB003308FD003208FC002F0818
:100FA0000A168A1531260A128A11080083160317B9
:100FB0000A168A1100200A128A11A4000A168A1140
:100FC00001200A128A11A5009E019F01A001A10122
:100FD000A201A30183171030840060300A168A151D
:100FE0000B240A128A118313E5308400EE300A16AE
:100FF0008A150B240A128A1183010A128A15E22922
:10100200F100710883120313870008158815C73091
:10101200F0000B28F00B0A280E280F288312031366
:10102200881108008312031327088039B1002708AA
:10103200A8002807B800A61F1F2820282128381436
:1010420038080319252826283628380A031D2A2895
:101052002B2833280030A7000030A6000030A5005E
:101062000030A400A617A7013E280030A7000030D8
:10107200A6000030A5000030A40023088039FF003C
:101082007F08B1062308A8002807B900A21F4A2832
:101092004B284C2839143908031950285128612843
:1010A200390A031D552856285E280030A300003057
:1010B200A2000030A1000030A000A217A3016928FD
:1010C2000030A3000030A2000030A1000030A000D8
:1010D2002308220421042004031D702871288A2871
:1010E2000030A7000030A6000030A5000030A400A8
:1010F2008030A6047F30A7043108FF007F08A704D0
:101102002708A3002608A2002508A1002408A000A1
:10111200E1293808031D8E288F2898280030A30063
:101122000030A2000030A1000030A000E129380800
:10113200A800A9012908AB0039082802AA00031C4B
:10114200AB032A087F3EB2002B080318013E003E83
:10115200B3002708B0002608AF002508AE00240817
:10116200AD000030A7000030A6000030A50000301E
:10117200A4000030B7000030B6000030B5000030E7
:10118200B400B9010E2939080319C828C928E92869
:101192000130A8000310AD0DAE0DAF0DB00DA80BC0
:1011A200CB280130A8000310A40DA50DA60DA70D94
:1011B200A80BD428B71FDE28DF28E028241401302A
:1011C200A8000310B40DB50DB60DB70DA80BE2289B
:1011D20023083002031DF72822082F02031DF728D7
:1011E20021082E02031DF72820082D02031CFA28CD
:1011F200FB280A2937172008AD022108031C210FFA
:10120200AE022208031C220FAF022308031C230F85
:10121200B0020130FF007F08B9071A303902031CFF
:1012220013291429C42830082F042E042D0403196D
:101232001B291C293B2934143B290130A800031027
:10124200A40DA50DA60DA70DA80B2029B71F2A29AD
:101252002B292C2924140130A8000310B40DB50D3C
:10126200B60DB70DA80B2E29FF30B2070318B30A2B
:10127200FF30B307A61F3E293F291E29B901B71F18
:10128200432944296029FF303405A800FF30350581
:10129200A900FF303605AA007F303705AB002B08C6
:1012A2002A04290428040319572958295B29B9015A
:1012B200B90A6029241C5E295F2960295829390846
:1012C20003196429652996290130A40700300318FF
:1012D2000130A507003003180130A60700300318BB
:1012E2000130A707271C7629772996292408A80008
:1012F2002508A9002608AA002708AB000130AC0087
:101302002B0DAB0CAA0CA90CA80CAC0B81292B0839
:10131200A7002A08A6002908A5002808A400013071
:10132200B2070318B30A0030B3073308803AFF004C
:1013320080307F02031D9F29FF303202031CA22945
:10134200A329B129FF3083120313B2000030B30086
:101352000030A7000030A6000030A5000030A40035
:10136200831203133308803AFF0080307F02031D8B
:10137200BC29013032020318BF29C029CD298312AA
:101382000313B201B3010030A7000030A600003001
:10139200A5000030A400B101831203133208B80083
:1013A200381CD429D529D729A617DB297F30FF007D
:1013B2007F08A6053808A8000310280CA7007D287E
:1013C20008000A168A1589240A128A150A168A152D
:1013D2003E240A128A151730F2008030F3000A16F2
:1013E2008A15CA250A128A150B3083160313E400E4
:1013F2002630E3005D30E200E20BFD29E30BFD291C
:10140200E40BFD290A168A153E240A128A152E308B
:10141200F2008030F3000A168A15CA250A128A15CC
:101422000B3083160313E4002630E3005D30E20044
:10143200E20B192AE30B192AE40B192A0A128A1160
:1014420004200A128A15710883160317A300700874
:10145200A2003E3083120313A300F930A200DB3056
:10146200A1002330A000831603172208F0002308EE
:10147200F100F201F30100300A168A11C4210A12A6
:101482008A15730883120313A7007208A600710855
:10149200A5007008A4000A128A15BB240A128A1534
:1014A200831203132308831603179D008312031369
:1014B2002208831603179C00831203132108831644
:1014C20003179B00831203132008831603179A0045
:1014D2001D0883120313D100831603171C088312FD
:1014E2000313D000831603171B0883120313CF00C4
:1014F200831603171A0883120313CE00BF30BD00F0
:101502000030BC000030BB000030BA004130A30004
:101512002030A2000030A1000030A0008316031783
:101522002408F0002508F100F201F30100300A1648
:101532008A11C4210A128A15730883120313A700A1
:101542007208A6007108A5007008A4000A128A1584
:1015520013200A128A15831203132308C1002208DA
:10156200C0002108BF002008BE000A168A11A82563
:101572000A128A15831203133D08D5003C08D400D1
:101582003B08D3003A08D2000A168A1120210A1217
:101592008A150318CD2ACE2AD32A831203130814DC
:1015A2008810452B3F3083120313BD000030BC006E
:1015B2000030BB000030BA004130A3002030A2004E
:1015C2000030A1000030A000831603172408F000A9
:1015D2002508F100F201F30100300A168A11C42134
:1015E2000A128A15730883120313A7007208A60051
:1015F2007108A5007008A4000A128A1513200A12A5
:101602008A15831203132308C1002208C00021088F
:10161200BF002008BE000A168A11A8250A128A15E0
:10162200831203133D08D1003C08D0003B08CF00D1
:101632003A08CE00831603171D0883120313D50040
:10164200831603171C0883120313D400831603178F
:101652001B0883120313D300831603171A0883127D
:101662000313D2000A168A1120210A128A150318BE
:101672003B2B3C2B412B8312031308108814452B60
:101682008312031308108810061C482B492BAF2B1A
:101692001A3083160313E300F730E200E20B4F2BFC
:1016A200E30B4F2B542B83120313061C592B5A2B7B
:1016B200AF2B013083160317A4070318A50A0030C5
:1016C200A5070C300A168A159F240A128A150A30B9
:1016D200F0000030F100831603172508F3002408F8
:1016E200F2000A168A156B260A128A157008303E15
:1016F2000A168A151C240A128A152E300A168A1511
:101702001C240A128A150A30F0000030F1008316F8
:1017120003172508F3002408F2000A168A15F72594
:101722000A128A157008303E0A168A151C240A12FB
:101732008A1522300A168A159F240A128A15023047
:1017420083160313E4000430E300B930E200E20B35
:10175200A82BE30BA82BE40BA82BAF2B83120313AC
:10176200861CB42BB52B1B2C1A3083160313E300F3
:10177200F730E200E20BBB2BE30BBB2BC02B831237
:101782000313861CC52BC62B1B2C01308316031793
:10179200A4020030031CA503A5020C300A168A1508
:1017A2009F240A128A150A30F0000030F1008316D5
:1017B20003172508F3002408F2000A168A156B267F
:1017C2000A128A157008303E0A168A151C240A125B
:1017D2008A152E300A168A151C240A128A150A3016
:1017E200F0000030F100831603172508F3002408E7
:1017F200F2000A168A15F7250A128A157008303E79
:101802000A168A151C240A128A1522300A168A150B
:101812009F240A128A15023083160313E40004304F
:10182200E300B930E200E20B142CE30B142CE40BBE
:10183200142C1B2C0A168A153E240A128A15F20150
:1018420000300A168A1560240A128A150C30F2003A
:101852008030F3000A168A15CA250A128A150A3040
:10186200F0000030F100831603172508F300240866
:10187200F2000A168A156B260A128A157008303E83
:101882000A128A1501200A128A152E300A128A15A6
:1018920001200A128A150A30F0000030F100831686
:1018A20003172508F3002408F2000A168A15F72503
:1018B2000A128A157008303E0A128A1501200A128D
:1018C2008A1543300A128A1501200A128A15F2017A
:1018D20001300A168A1560240A128A150130F200B4
:1018E2008030F3000A168A15CA250A128A15293091
:1018F20083160313CF00831603171D0883160313E1
:10190200D300831603171C0883160313D200831611
:1019120003171B0883160313D100831603171A0833
:1019220083160313D00090300A168A15BE240A12B9
:101932008A159030F2000130F3000A168A15CA2582
:101942000A128A1543300A128A1501200A128A15D0
:10195200033083160313E4008A30E3005530E200BB
:10196200E20BB12CE30BB12CE40BB12C1F2A0A12AF
:101972008A1100288312031323088039AD0023083B
:10198200A8002807B300A21FC72CC82CC92C3314E7
:1019920033080319CD2CCE2CDD2C330A031DD22C97
:1019A200D32CDB2C0030A3000030A2000030A100B9
:1019B2000030A000A217E52C0030A3000030A200E6
:1019C2000030A1000030A00027088039FF007F0806
:1019D200AD062708A8002807B200A61FF12CF22C9A
:1019E200F32C321432080319F72CF82C072D320A83
:1019F200031DFC2CFD2C052D0030A7000030A60095
:101A02000030A5000030A400A6170F2D0030A7005B
:101A12000030A6000030A5000030A40032080319EF
:101A2200132D142D192D3308031D182D192D222DB8
:101A32000030A3000030A2000030A1000030A0005E
:101A4200FF2F2008F00026080A168A154E250A12D2
:101A52008A15710883120313B9007008B800380898
:101A6200A800A901AA01AB012B08B1002A08B00005
:101A72002908AF002808AE003908A800A901AA0168
:101A8200AB012B08B7002A08B6002908B5002808C0
:101A9200B4002108F00025080A168A154E250A12FC
:101AA2008A15710883120313B9007008B800380848
:101AB200A800A901AA01AB012808AE072908031151
:101AC2000318013E0319662DAF072A0803110318F4
:101AD200013E03196D2DB0072B0803110318013EB7
:101AE2000319742DB1073908A800A901AA01AB0195
:101AF2002808B407290803110318013E0319822D8F
:101B0200B5072A0803110318013E0319892DB607E8
:101B12002B0803110318013E0319902DB707220861
:101B2200F00024080A168A154E250A128A15710831
:101B320083120313B9007008B8003808A800A9017D
:101B4200AA01AB012808AE07290803110318013EB8
:101B52000319AC2DAF072A0803110318013E03191C
:101B6200B32DB0072B0803110318013E0319BA2D38
:101B7200B1073908A800A901AA01AB012808B407D6
:101B8200290803110318013E0319C82DB5072A08B5
:101B920003110318013E0319CF2DB6072B080311B9
:101BA2000318013E0319D62DB7070830A800031009
:101BB200AE0DAF0DB00DB10DA80BD82D2108F00060
:101BC20024080A168A154E250A128A1571088312EC
:101BD2000313B9007008B8003808A8003908A90032
:101BE200AA01AB012808AE07290803110318013E18
:101BF2000319FC2DAF072A0803110318013E03192C
:101C0200032EB0072B0803110318013E03190A2EF5
:101C1200B1072008F00025080A168A154E250A1277
:101C22008A15710883120313B9007008B8003808C6
:101C3200A8003908A900AA01AB012808AE072908A3
:101C420003110318013E0319272EAF072A080311B7
:101C52000318013E03192E2EB0072B080311031897
:101C6200013E0319352EB1070830A8000310AE0D4E
:101C7200AF0DB00DB10DA80B372E2008F0002408CF
:101C82000A168A154E250A128A1571088312031341
:101C9200B9007008B8003808A8003908A900AA01DC
:101CA200AB012808AE07290803110318013E0319E6
:101CB2005B2EAF072A0803110318013E0319622E97
:101CC200B0072B0803110318013E0319692EB1074F
:101CD2002108F00026080A168A154E250A128A15CE
:101CE200710883120313B9007008B8003808A800FD
:101CF2003908A900AA01AB012808B4072908031171
:101D02000318013E0319862EB5072A08031103188A
:101D1200013E03198D2EB6072B0803110318013E4D
:101D22000319942EB7072208F00025080A168A150F
:101D32004E250A128A15710883120313B90070081E
:101D4200B8003808A8003908A900AA01AB01280880
:101D5200B407290803110318013E0319B12EB50770
:101D62002A0803110318013E0319B82EB6072B08DF
:101D720003110318013E0319BF2EB7072208F00012
:101D820026080A168A154E250A128A157108831228
:101D92000313B9007008B8003808A8003908A90070
:101DA200AA01AB0108300310A80DA90DAA0DAB0DB5
:101DB200FF3E031DD42E2808B40729080311031877
:101DC200013E0319E52EB5072A0803110318013E47
:101DD2000319EC2EB6072B0803110318013E031951
:101DE200F32EB7072E08A8002F08A9003008AA0072
:101DF2003108AB0018300310AB0CAA0CA90CA80CCC
:101E0200FF3E031DFC2E2808B407290803110318FE
:101E1200013E03190D2FB5072A0803110318013ECD
:101E22000319142FB6072B0803110318013E0319D7
:101E32001B2FB7070830A8000310AE0DAF0DB00D71
:101E4200B10DA80B1D2F33083207A800A901A90D57
:101E52002808823EB80029080318013EFF3EB90057
:101E62004F2F0130A8000310B40DB50DB60DB70DFC
:101E7200A80B342FB11F3E2F3F2F402F34140130B7
:101E8200A8000310AE0DAF0DB00DB10DA80B422F7F
:101E9200FF30B8070318B90AFF30B907B61F522F2F
:101EA200532F322FB201B11F572F582F742FFF30EB
:101EB2002E05A800FF302F05A900FF303005AA002B
:101EC2007F303105AB002B082A04290428040319AA
:101ED2006B2F6C2F6F2FB201B20A742F341C722F2A
:101EE200732F742F6C2F32080319782F792FAA2F92
:101EF2000130B407003003180130B5070030031871
:101F02000130B607003003180130B707371C8A2F9B
:101F12008B2FAA2F3408A8003508A9003608AA007A
:101F22003708AB000130AC002B0DAB0CAA0CA90C8E
:101F3200A80CAC0B952F2B08B7002A08B60029086D
:101F4200B5002808B4000130B8070318B90A0030F8
:101F5200B9073908803AFF0080307F02031DB32F92
:101F6200FF303802031CB62FB72FC22F7F308312E7
:101F72000313B7008030B6000030B5000030B40063
:101F8200F32F831203133908803AFF0080307F0257
:101F9200031DCD2F013038020318D02FD12FDD2F92
:101FA200003083120313B7000030B6000030B500D2
:101FB2000030B400AD01F32F831203133808B300CD
:101FC200FF30B405FF30B5057F30B6050030B705E8
:101FD200331CEC2FED2FEE2FB6173308A800031099
:101FE200280CB7002D08FF007F08B7043708A300AC
:101FF2003608A2003508A1003408A0000800723497
:102002000134F2007208F1000130F007FF3070076E
:1020120084000A168A150A200A168A11FF0071081E
:1020220084000130F1077F08831780000008031D38
:102032001B281C28052808000310720D730DF900D7
:102042007908031D252826282F280030F3000030A8
:10205200F2000030F1000030F00092287008F40025
:102062007108F5007208F6007308F7001F300310BC
:10207200F70CF60CF50CF40CFF3E031D382874081F
:10208200F800F217FF30F005FF30F105FF30F205DE
:102092000030F3059630F902F91F502851286B28B9
:1020A2007908803A973E0318572858285928262835
:1020B20001300310F30CF20CF10CF00CFF3E031D87
:1020C2005A280130FF007F08F907031D69286A2892
:1020D2005928822820307902031C702871287D2813
:1020E20026280130F4000310F00DF10DF20DF30D6E
:1020F200F40B74280130F9027908031D8128822823
:10210200722878080319862887289228F009F1098D
:10211200F209F309F00A0319F10A0319F20A031981
:10212200F30A080083160313680883120313A50039
:1021320083160313670883120313A4008316031381
:10214200660883120313A300831603136508831220
:102152000313A2007308A5007208A4007108A3006B
:102162007008A2002208F4002308F5002408F600F3
:102172002508F70017300310F70CF60CF50CF40CD9
:10218200FF3E031DBC28FF307405A000003075051A
:10219200A10020082104031DCF28D028F3282208FB
:1021A200F4002308F5002408F6002508F7000130A2
:1021B2000310F40DF50DF60DF70DFF3E031DD928A2
:1021C2007708760475047404031DE828E928EE28CC
:1021D2000230F0000030F1001F290330F00000301F
:1021E200F1001F29200A2104031DF828F9281B29C0
:1021F2002208F4002308F5002408F6002508F70059
:1022020009300310F40DF50DF60DF70DFF3E031D19
:102212000229770876047504740403191129132915
:10222200013014290030F800F9017808F00079082B
:10223200F1001F290430F0000030F10008000030E6
:10224200831203134E05D60000304F05D7008030AD
:102252005005D8007F305105D90059085804570459
:102262005604031D352936293E290030D10000309D
:10227200D0000030CF000030CE0000305205D60032
:1022820000305305D70080305405D8007F30550503
:10229200D9005908580457045604031D51295229DC
:1022A2005A290030D5000030D4000030D30000306D
:1022B200D200D11F5D295E2982290030D60000306C
:1022C200D7000030D8008030D9004E08D6024F081F
:1022D200031C4F0F6D296E29D7025008031C500FA3
:1022E20073297429D8025108031C510F79297A29BC
:1022F200D9025908D1005808D0005708CF00560813
:10230200CE00D51F85298629AA290030D6000030A3
:10231200D7000030D8008030D9005208D6025308C6
:10232200031C530F95299629D7025408031C540FF6
:102332009B299C29D8025508031C550FA129A229C3
:10234200D9025908D5005808D4005708D3005608B6
:10235200D2008030D1068030D50655085102031DC7
:10236200BC2954085002031DBC2953084F02031D07
:10237200BC2952084E020318BF29C029C2290310E2
:10238200C32903140800F80078080319C929CA29C7
:10239200DE29F31FCD29CE29DE297009FA00710941
:1023A200FB007209FC007309FD00FA0A0319FB0A1B
:1023B2000319FC0A0319FD0AE6297308FD007208D5
:1023C200FC007108FB007008FA00730872047104C3
:1023D2007004031DED29EE29F7290030F3000030C7
:1023E200F2000030F1000030F0007B2A9630F90054
:1023F200072A0130FF007F08F90701300310FD0CA6
:10240200FC0CFB0CFA0CFF3E031DFF29FE307D0580
:10241200031D0C2A0D2AFA29292A0130FF007F0800
:10242200F9070130FA07003003180130FB070030CA
:1024320003180130FC07003003180130FD0701309A
:102442000310FD0CFC0CFB0CFA0CFF3E031D212AB1
:10245200FF307D05031D2E2A2F2A0E2A3B2A01302A
:10246200F9020130F4000310FA0DFB0DFC0DFD0D15
:10247200F40B342AFC1B3E2A3F2A452A02307902F9
:102482000318442A452A302A7918482A492A512A07
:10249200FF30FA05FF30FB057F30FC05FF30FD05FC
:1024A2000310F90C7908F400F501F601F701183070
:1024B2000310F40DF50DF60DF70DFF3E031D592A1D
:1024C2007408FA047508FB047608FC047708FD0416
:1024D200780803196D2A6E2A732AF31F712A722A49
:1024E200732AFD177D08F3007C08F2007B08F100D7
:1024F2007A08F000080083120313EB0063088400DB
:102502008313000884000A168A150A200A168A1103
:10251200253A031D8D2A8E2A702B0130FF00630895
:1025220084007F08800783160313E901EA01031080
:10253200003003180130ED00FF30EB00FF30EC00FB
:102542008312031363088400000884000A168A15A4
:102552000A200A168A112E3A031DB02AB12AC52A68
:102562000130FF00630884007F0880076408F600DA
:1025720063080A168A15A8270A168A11770883168D
:102582000313EC007608EB008312630884008313C4
:102592000008ED006D0884000A168A150A200A1642
:1025A2008A11EC00DE2A0130FF007F08ED07F12AD4
:1025B2006C30EC00F12AEC01F12A6C08E500E6012E
:1025C2006608003A0319E62ADC2A65084C3A031920
:1025D200D42A2A3A0319D92A0A3A0319D42ADC2A14
:1025E2006D0884000A168A150A200A168A11663AAC
:1025F200031DFC2AFD2A662B262B64088400000892
:10260200FF00043080077F0884000008E700840A86
:102612000008E800840A0008E900840A0008EA00C9
:10262200362B640884000008FF00043080077F080E
:1026320084000008E700840A0008E800840A000811
:10264200E900840A0008EA00362B6C08E500E6017E
:102652006608003A03192E2B362B65084C3A0319EB
:10266200122B203A0319FE2A362B630884006D08C8
:10267200013E8000532B6A08DD006908DC0068080F
:10268200DB006708DA006D0884000A168A150A2042
:102692000A168A11DE006B080A168A1197240A1696
:1026A2008A11872B6D0884000A168A150A200A16D9
:1026B2008A11E500E6016608003A0319612B662BD0
:1026C2006508663A03193C2B662B0130FF00831222
:1026D2000313630884007F0883138007872B630832
:1026E2008400000884000A168A150A200A168A1134
:1026F200E500E6016508F0006608F1006B08F200EB
:102702000A168A1550270A168A11662B08008316A4
:102712000317210883120313CD0083160317200821
:1027220083120313CC00831603171F0883120313AB
:10273200CB00831603171E0883120313CA003D0839
:10274200CD003C08CC003B08CB003A08CA004A083E
:10275200BE004B08BF004C08C0004D08C100173036
:102762000310C10CC00CBF0CBE0CFF3E031DB12BED
:10277200FF303E05C20000303F05C3004208813EE3
:10278200C80043080318013EFF3EC9004908803AC9
:10279200FF0080307F02031DD02B17304802031C3C
:1027A200D32BD42BD52B962C83120313C91BDA2BD4
:1027B200DB2B4B2C480AFF00FF30BE00FF30BF006E
:1027C2007F30C0000030C100EB2B410DC10CC00CAA
:1027D200BF0CBE0CFF0BE62B4108C7004008C60029
:1027E2003F08C5003E08C40044084A05BE0045082B
:1027F2004B05BF0046084C05C00047084D05C10007
:10280200410840043F043E04031D082C092C0A2CF5
:10281200D42B4A08BE004B08BF004C08C0004D082C
:10282200C1001F300310C10CC00CBF0CBE0CFF3E18
:10283200031D132C410840043F043E040319222CBB
:10284200232C3A2C4408CA07450803110318013EF9
:1028520003192C2CCB07460803110318013E031958
:10286200332CCC07470803110318013E03193A2CF5
:10287200CD074409BE004509BF004609C00047090B
:10288200C1003E08CA053F08CB054008CC054108F7
:10289200CD058E2C4A08BE004B08BF004C08C00074
:1028A2004D08C1001F300310C10CC00CBF0CBE0C80
:1028B200FF3E031D542C410840043F043E04031D07
:1028C200632C642C6D2C0030CD000030CC00003025
:1028D200CB000030CA008E2C4A08BE004B08BF0055
:1028E2004C08C0004D08C10001300310BE0DBF0DE1
:1028F200C00DC10DFF3E031D762C410840043F046C
:102902003E040319852C862C8E2CBF30CD008030DE
:10291200CC000030CB000030CA004D08BD004C088E
:10292200BC004B08BB004A08BA0008008316031318
:10293200AF00C201831203135D0883160313C8009C
:10294200831203135C0883160313C7008312031355
:102952005B0883160313C600831203135A088316F7
:102962000313C500480883120313D100831603130F
:10297200470883120313D0008316031346088312F9
:102982000313CF0083160313450883120313CE00EB
:102992000030D5000030D4000030D3000030D20027
:1029A2000A168A1120210A168A110318D92CDA2C48
:1029B200F52C83160313C201C20A4808F300470824
:1029C200F2004608F1004508F0000A168A1526248E
:1029D2000A168A11730883160313C8007208C70007
:1029E2007108C6007008C50083160313C301C40131
:1029F2006A08B3006908B20042080319012D022DCA
:102A0200122D4208031D062D072D0C2D2B30A6007A
:102A12000030A700102D2D30A6000030A700260898
:102A2200C2004808F3004708F2004608F1004508D2
:102A3200F0000A168A1193200A168A117003710493
:102A4200031D242D252D5C2D831603134208031923
:102A52002B2D2C2D3C2D4208831203179000FF30A2
:102A620083160313B2070318B30AFF30B30701300A
:102A7200C3000030C4003330F0004308103E0A1691
:102A82008A1102200A168A11FD3083160313B20737
:102A92000318B30AFF30B3071030FB003308FD0000
:102AA2003208FC002F080A168A1531260A168A11E6
:102AB2000A128A11D52F831603134808F300470818
:102AC200F2004608F1004508F0000A168A11932028
:102AD2000A168A1170087104031D702D732D0A12D3
:102AE2008A111B288316031342080319792D7A2DA4
:102AF2008A2D4208831203179000FF3083160313B6
:102B0200B2070318B30AFF30B3070130C300003025
:102B1200C4003730F0004308103E0A168A11022022
:102B22000A168A11FD3083160313B2070318B30A7B
:102B3200FF30B3071030FB003308FD003208FC0001
:102B42002F080A168A1531260A168A11592D831260
:102B520003133D088039CA003D08C2004207CC0079
:102B6200BC1FB42DB52DB62D4C144C080319BA2D2B
:102B7200BB2DCB2D4C0A031DBF2DC02DC82D0030FF
:102B8200BD000030BC000030BB000030BA00BC17F2
:102B9200BD01D32D0030BD000030BC000030BB00B1
:102BA2000030BA0041088039CB004B084A060319AD
:102BB200DB2DDC2DDD2D4A174108C2004207CB0078
:102BC200C01FE42DE52DE62D4B144B080319EA2D09
:102BD200EB2DFB2D4B0A031DEF2DF02DF82D0030B0
:102BE200C1000030C0000030BF000030BE00C0177E
:102BF200C101032E0030C1000030C0000030BF0010
:102C02000030BE004C084B020318082E092E2F2E4E
:102C12004A1F0C2E0D2E112E8030FF007F08CA068F
:102C22004C08CD004B08CC004D08CB003A08CD0033
:102C32003E08BA004D08BE003B08CD003F08BB006D
:102C42004D08BF003C08CD004008BC004D08C00044
:102C52003D08CD004108BD004D08C100CD014B0823
:102C6200C200C3014308C5004C084202C400031C51
:102C7200C5034508803AFF0080307F02031D432EC2
:102C82001A304402031C462E472E7E2E8312031353
:102C92003D083C043B043A04031D502E522E0130E1
:102CA200532E0030CD000030BD000030BC0000309B
:102CB200BB000030BA004B08CC00862E4D1C622EA1
:102CC200632E6A2E4D08C2000310420C0138CD005B
:102CD2006C2E0310CD0C3A1C6F2E702E712ECD1758
:102CE2000130C2003D0DBD0CBC0CBB0CBA0CC20BBA
:102CF200732E0130FF007F08CC07831203134B08A9
:102D02004C02031C852E862E5F2E4A1B892E8A2E8C
:102D1200D32E4C08031D8E2E8F2E982E0030BD0010
:102D22000030BC000030BB000030BA00FF2F3E086C
:102D3200BA073F0803110318013E0319A12EBB076E
:102D4200400803110318013E0319A82EBC074108CD
:102D520003110318013E0319AF2EBD073D1CB22E0D
:102D6200B32E872F4D1CB62EB72EBE2E4D08C20095
:102D72000310420C0138CD00C02E0310CD0C3A1CBA
:102D8200C32EC42EC52ECD170130C2003D0DBD0C81
:102D9200BC0CBB0CBA0CC20BC72E0130FF007F0863
:102DA200CC07872F3D08803AFF004108803A7F0216
:102DB200031DE52E40083C02031DE52E3F083B02A1
:102DC200031DE52E3E083A020318E82EE92E412F94
:102DD200FF30C200FF30C300FF30C400FF30C50027
:102DE2003E08C6003F08C7004008C8004108C900A5
:102DF2003A08C6023B08031C3B0F002F012FC702F3
:102E02003C08031C3C0F062F072FC8023D08031C79
:102E12003D0F0C2F0D2FC9024608C20747080318A1
:102E2200470F142F152FC30748080318480F1A2FEE
:102E32001B2FC40749080318490AC5074508BD00E6
:102E42004408BC004308BB004208BA008030FF00BF
:102E52007F08CA06CD09CD0A4D08031D312F322F36
:102E62004F2F0130BA07003003180130BB07003082
:102E720003180130BC07003003180130BD074F2F83
:102E82003E08BA023F08031C3F0FBB024008031C66
:102E9200400FBC024108031C410FBD023D083C0427
:102EA2003B043A04031D562F572F832F4D08031D51
:102EB2005B2F5C2F832F0030BD000030BC00003040
:102EC200BB000030BA00FF2F0130C2000310BA0D60
:102ED200BB0DBC0DBD0DC20B672FCD1F712F722F05
:102EE200732F3A144D1C762F772F7A2F0314CD0DA2
:102EF2007C2F0310CD0D4C080319802F812F832FB7
:102F02000130CC02BC1F862F872F652FCB01CD1F2E
:102F12008B2F8C2F9A2F4D087F390319912F922FC7
:102F2200952FCB01CB0A9A2F3A1C982F992F9A2FC3
:102F3200922F4B0803199E2F9F2FD32F0130BA07D0
:102F4200003003180130BB07003003180130BC0702
:102F5200003003180130BD073D1CB02FB12FD32F15
:102F62003A08C2003B08C3003C08C4003D08C50043
:102F72000130C600450DC50CC40CC30CC20CC60BF7
:102F8200BB2F4508BD004408BC004308BB004208F3
:102F9200BA004C0A0319CE2FCF2FD32F0130FF00D6
:102FA2007F08CC074C0A0319D72FD82FDD2F4C08E6
:102FB200031DDC2FDD2FEB2F0030BD000030BC00E5
:102FC2000030BB000030BA004C08031DE92FEA2F85
:102FD200EB2FCA014C1CEE2FEF2FF12FBC17F52F50
:102FE2007F30FF007F08BC054C08C2000310420C72
:102FF200BD00CA1FFD2FFE2FFF2FBD170800FF1BAC
:103002000A2883137F1883170008840A0319FF0A0A
:10301200080018308A000408840A820700345434F5
:1030220065346D3470342034723469346C343A341B
:103032002034003453346534743450346F3469347A
:103042006E3474343A3420340034423465346E348D
:10305200763465346E34753474346F34213400340C
:103062002034EF34BF34BD3443340A3400342534C1
:103072002E34313466340034543465347334743449
:10308200003469346E34663400346E3461346E3424
:02309200003408
:1038160064008001840A04060319003404060C2C93
:103826004130831203139F008030831603139F00D9
:103836000800F000831203130C1E222C232C1D2CCF
:103846007008990008007308720471047004031963
:103856002D2C2E2C302C8030F306080024308316B5
:1038660003139800903083120313980019308316BF
:1038760003139900080001300A168A154E240A1609
:103886008A150330F3009730F200F20B482CF30B45
:10389600482C4D2C0800F100710883120313870091
:1038A60008118815C730F000582CF00B572C5B2CEC
:1038B6005C2C8312031388110800F3007308031DA0
:1038C600652C662C6A2C7208803EF4006D2C7208FA
:1038D600C03EF40074080A168A154E240A168A1584
:1038E6000800F31B772C782C792C882C7009F000B3
:1038F6007109F1007209F2007309F300F00A031965
:10390600F10A0319F20A0319F30A080083160313CE
:103916008801FF30860087010A168A1513240A16C5
:103926008A150A168A15FD260A168A150A168A1592
:1039360031240A168A150800F100B12C710884009A
:103946000A168A150A200A168A150A168A151C24CA
:103956000A168A150130FF007F08F10771088400F6
:103966000A168A150A200A168A15003A031DBC2C67
:10397600BD2CA12C080083160313D500D030D60029
:103986005508D700D901DA01E001E1014F08831299
:103996000313EE00D630EF00D7300A168A159F259E
:1039A6000A168A158316031359085507D4005408B6
:1039B6008400831780010800803083120313D10628
:1039C6005508BD005408BC005308BB005208BA0095
:1039D6005108C1005008C0004F08BF004E08BE0085
:1039E6000A168A11A8250A168A15831203133D089A
:1039F600D1003C08D0003B08CF003A08CE000800B2
:103A0600F401F501701C082D092D0F2D7208F4071D
:103A16000318F50A7308F50701300310F20DF30DCC
:103A2600FF3E031D102D01300310F10CF00CFF3E7C
:103A3600031D172D70087104031D222D232D052D3E
:103A46007508F1007408F0000800F4007008F6002C
:103A56007408F5003F2D7608840083170008F300EC
:103A66000130FF007F08F6077508840073088000A0
:103A76000130FF007F08F5070130F1020030031C1A
:103A8600F203F202710A031D4C2D720A031D4C2D1E
:103A96004D2D2E2D0800F800F401F5017008F200F6
:103AA600F3017208F6007308F700781C5B2D5C2D95
:103AB600622D7608F4070318F50A7708F507013032
:103AC6000310F60DF70DFF3E031D632D0310F80CD2
:103AD6007808031D6F2D702D582D7508F100740898
:103AE600F000080083120313A300A101A201912D87
:103AF6002008F900FA017908F0007A08F100780840
:103B0600F2000A168A1550270A168A150130831202
:103B16000313A1070318A20A0030A20721082307EE
:103B2600F9007908840083170008A0002008031D07
:103B36009D2D9E2D7B2D080083160313CD00831229
:103B460003136E0883160313CE00B72DCE308312EF
:103B56000313E3006F08E400831603134D080A16E7
:103B66008A117C220A168A15831603134E088400CE
:103B76000A168A150A200A168A15003A031DC42D4C
:103B8600C52DA92D83120313EE01EF010800E62DC2
:103B96007308FF00720884000A168A1500200A16A8
:103BA6008A150A128A1501200A168A150130F207AB
:103BB6000318F30A0030F307C730F400E22DF40BC4
:103BC600E12DE52DE62D730883120313FF0072081D
:103BD60084000A168A1500200A168A15003A031D63
:103BE600F52DF62DCB2D0800700871040319FC2D58
:103BF600FD2D2C2EF401F40A0B2E01300310F00DCE
:103C0600F10DFF3E031D012E0130FF007F08F40772
:103C1600F11F0E2E0F2E002E71087302031D152E96
:103C260070087202031C182E192E1F2E7008F2023D
:103C36007108031CF303F30201300310F10CF00CBE
:103C4600FF3E031D202E0130F402031D2B2E2C2EC9
:103C56000F2E7308F1007208F00008008312031398
:103C6600A700FD1F372E382E3A2EFC01FD01A501B7
:103C7600A601522E2030F0000030F100831203130B
:103C86002708F2000A168A1550270A168A150130E7
:103C960083120313A5070318A60A0030A6072608F1
:103CA600803AA4007D08803A2402031D5C2E7C081D
:103CB6002502031C5F2E602E3D2E83120313270858
:103CC600F8007B080A168A1575250A168A15080053
:103CD600F401F501700871040319722E732EAA2ED1
:103CE600F601F60A812E01300310F00DF10DFF3EAC
:103CF600031D772E0130FF007F08F607F11F842E83
:103D0600852E762E01300310F40DF50DFF3E031DB2
:103D1600862E71087302031D922E70087202031C10
:103D2600952E962E9D2E7008F2027108031CF30341
:103D3600F302741401300310F10CF00CFF3E031D66
:103D46009E2E0130F602031DA92EAA2E852E750879
:103D5600F1007408F000080000307005F80000302B
:103D66007105F90080307205FA007F307305FB009B
:103D76007B087A0479047804031DC22EC32ECB2E49
:103D86000030F3000030F2000030F1000030F000A7
:103D960000307405F80000307505F90080307605AE
:103DA600FA007F307705FB007B087A0479047804F3
:103DB600031DDE2EDF2EE72E0030F7000030F60062
:103DC6000030F5000030F40077087306031DF52E69
:103DD60076087206031DF52E75087106031DF52E6D
:103DE600740870060319F82EF92EFB2E0310FC2E0C
:103DF600031408001A30F300F830F200F20B012F1A
:103E0600F30B012F000030300A168A154E240A16CD
:103E16008A150730F3007D30F200F20B102FF30BFA
:103E2600102F30300A168A154E240A168A1542308B
:103E3600F200F20B1C2F000030300A168A154E24B1
:103E46000A168A150330F3009730F200F20B292F79
:103E5600F30B292F2E2F38300A168A154E240A16F0
:103E66008A150C300A168A154E240A168A1506304B
:103E76000A168A154E240A168A1501300A168A155C
:103E86004E240A168A150330F3009730F200F20B1F
:103E96004A2FF30B4A2F4F2F080072080319542F8D
:103EA600552F5A2F7208031D592F5A2F612F70084C
:103EB6000A128A1103200A168A15A72F7208093ECC
:103EC600840083130008F300840A0008F4007308D2
:103ED600740403196F2F702F8E2F7208093E840009
:103EE6000008F300840A0008F4007208023E840009
:103EF6000008F500840A0008F6007608803AF70004
:103F06007408803A7702031D8A2F73087502031816
:103F16008D2F8E2FA72F7208023E84008313000870
:103F2600F3007208840000087307F4007408840024
:103F36007008831780007208023E840001308313E4
:103F46008007840A0318800A0800FB00F901FA01B9
:103F56007B0884008313000884000A168A150A2049
:103F66000A168A152A3A031DB92FBA2FEA2F0130ED
:103F7600FF007B0884007F0880077608840000081D
:103F8600FF00023080077F0884000008F900840AD9
:103F96000008FA00FB2F7A08F1007908F0000A30D1
:103FA600F2000030F3000A168A1503250A168A1550
:103FB60078087007F9000030031801307107FA001D
:103FC6000130FF007B0884007F08831380077B088D
:103FD6008400000884000A168A150A200A168A1523
:103FE600D03EF8000A307802031CFA2FFB2FCE2FA2
:0A3FF6007A08F7007908F6000800C9
:02400E00723D01
:00000001FF
