:060000000A128A1110280B
:10000800FE00030EF3000408F4000A08F5007F0858
:10001800F6000A128A11232B0A128A111328831256
:100028000313B901BA01BB01BC01BD01BE01BF0187
:10003800C001C101C201C301C401C501C6018301D8
:100048000A128A1127280A128A113D220A128A11D5
:10005800003083120313B2000030B1002530B00025
:100068008030AF000A128A11E9220A128A11103070
:1000780083120313A4008030A5000A128A115D239D
:100088000A128A1183120313A001C0300A128A11BE
:10009800C4230A128A110630831603139F002030E6
:1000A8008500831603138801831203133908031983
:1000B8005E285F286A28B901BA013D30A4000030E3
:1000C800A5000A128A115D230A128A110A128A11DE
:1000D800A3210A128A1183120313BC0063303C0661
:1000E800031D772878287A28BB01552837303C0625
:1000F800031D7F288028D52855281C300A128A110C
:1001080095230A128A1155281E300A128A1195233E
:100118000A128A11552820300A128A1195230A12C8
:100128008A11552822300A128A1195230A128A1137
:10013800552824300A128A1195230A128A11552843
:1001480026300A128A1195230A128A115528283056
:100158000A128A1195230A128A1155282A300A127E
:100168008A1195230A128A1155282C300A128A11ED
:1001780095230A128A11552818300A128A119523D4
:100188000A128A1155281A300A128A1195230A125E
:100198008A11552816300A128A1195230A128A11D3
:1001A80055283C08B700B8013808003A0319DD287B
:1001B80055283708003A0319C028013A0319AB2813
:1001C800033A03199628013A03198128073A0319B3
:1001D800C728013A0319B228033A03199D28013A9E
:1001E800031988280F3A0319CE28013A0319B928A8
:1001F800033A0319A428013A03198F2855280A122B
:100208008A11102883120313AA01A31F0C290D2990
:100218001A29A009A109A209A309A00A0319A10A78
:100228000319A20A0319A30AAA01AA0AA71F1D29CA
:100238001E292D29A409A509A609A709A40A031995
:10024800A50A0319A60A0319A70A0130FF007F08A7
:10025800AA060030AE000030AD000030AC0000301F
:10026800AB00230822042104200403193C293D295A
:100278008A29A901A90A4D290130A8000310A00D57
:10028800A10DA20DA30DA80B42290130FF007F0884
:10029800A907A31F5029512940290130A80003109C
:1002A800AB0DAC0DAD0DAE0DA80B532923082702DD
:1002B800031D682922082602031D68292108250232
:1002C800031D682920082402031C6B296C297B293B
:1002D8002008A4022108031C210FA5022208031CE0
:1002E800220FA6022308031C230FA7022B14013098
:1002F8000310A30CA20CA10CA00CFF3E031D7C292B
:100308000130A902031D89298A2951292A080319BC
:100318008E298F299A29AB09AC09AD09AE09AB0A18
:100328000319AC0A0319AD0A0319AE0A2E08A30073
:100338002D08A2002C08A1002B08A000080063309B
:1003480083120313A6003F3083160313860083121B
:10035800031306098316031306050319B429B529DF
:10036800CB29063083120313A4002F30A300A30B5C
:10037800BB29A40BBB29C0298316031388010A30A3
:100388000A128A1195230A128A1137303C2A8312DD
:10039800031305098316031305050319D429D52961
:1003A800EA29063083120313A4002F30A300A30BFD
:1003B800DB29A40BDB29E029831603138801043009
:1003C8000A128A1195230A128A11C9290F30880046
:1003D800F830FF007F08860583120313A70127085A
:1003E800013E84000A128A11B6220A128A11860076
:1003F800203083120313A300A30B002A00008312EA
:100408000313080983160313080583120313A500B1
:10041800A8010130A300280A132A0310A30DFF3EE8
:10042800031D112A2308250503191B2A1C2A272A1C
:100438002708A30002300310A30DFF3E031D1F2A47
:1004480028082307A6000130FF007F08A80704300A
:100458002802031C302A312A0D2A0130FF007F08A8
:10046800A70703302702031C3A2A3B2AF329260848
:100478000800831603138801F930FF007F088905F7
:10048800343083120313A500F130A400A40B4A2AC8
:10049800A50B4A2A831203138914A00138300A12C3
:1004A8008A11C4230A128A110D3083120313A5007E
:1004B800FB30A400A40B5E2AA50B5E2A831203134B
:1004C800A00138300A128A11C4230A128A11033093
:1004D80083120313A5009730A400A40B712AA50B5F
:1004E800712A83120313A00138300A128A11C42317
:1004F8000A128A1183120313A00108300A128A1102
:10050800C4230A128A1183120313A0010F300A129E
:100518008A11C4230A128A1183120313A00101301D
:100528000A128A11C4230A128A1183120313A00122
:100538000E300A128A11C4230A128A118312031375
:10054800A00180300A128A11C4230A128A110800F5
:10055800FF1BB62A83137F1883170008840A031920
:10056800FF0A080002308A000408840A820700345F
:10057800FE34FD34FB34543452344934533441345A
:1005880000345434523449345334423400347E34C1
:100598006334693461346F340034233400342A34CA
:1005A80000343034003431340034323400343334DD
:1005B80000343434003435340034363400343734BD
:1005C8000034383400343934003483160313871761
:1005D8000713981683120313981718162F08B300D9
:1005E8003008B4003108B5003208B60006300310F0
:1005F800B30DB40DB50DB60DFF3E031DFB2A36082D
:10060800A3003508A2003408A1003308A000003078
:10061800A7007A30A6001230A5000030A4000A1204
:100628008A1106210A128A11831203132008FF3E39
:100638008316031399008B170B178C160800831267
:1006480003138C1E282B292B522B3A083D3E84007D
:100658001A08831380003D080A128A11EA230A1235
:100668008A11003A031D392B3A2B3B2B522B83124C
:1006780003138C123A083D3E84000D3083130006A4
:10068800031D472B482B4E2B3A083D3E8400800122
:10069800B901B90A0130FF007F08BA077608FF00E0
:1006A80075088A0074088400730E8300FE0E7E0E9F
:1006B8000900831203133B080319632B642B652B72
:1006C800942BA601A60A812BA001A00A26082407BC
:1006D800840025080318250AFF000A128A11AC2293
:1006E8000A128A110A128A11C4230A128A110130C5
:1006F800FF007F0883120313A60726082407840037
:1007080025080318250AFF000A128A11AC220A12CA
:100718008A11003A031D912B922B682BBB01BB0A4F
:10072800080083120313A2003B0803199C2B9D2B7E
:100738009E2BC32BA001A101B42B0C1EA42BA52B0F
:10074800A12B2008220784000A128A11B6220A1255
:100758008A1199000130A0070318A10A0030A107E7
:100768002008220784000A128A11B6220A128A1166
:10077800003A031DC02BC12BA12BBB01BB0A0800EB
:1007880083120313A300891423088800200C031C78
:10079800091103180915083083120313A200C93080
:1007A800A100A10BD52BA20BD52B83120313891003
:1007B800083083120313A200C930A100A10BE22B59
:1007C800A20BE22B8312031389140800F2000030F5
:1007D800F10072087E3CF000031CF10370087104FC
:0E07E8000319F72BF92B0130FA2B0030080013
:02400E00F23F7F
:00000001FF
