:100000000A128A11FC2F00308A000408840A820731
:100010000034FE34FD34FB346634693476346534A0
:020020000034AA
:100CF600F200F001F101942E831203130C1E842ED0
:100D0600852E7F2E7008720784000A128A1103202E
:100D16000A128A1199000130F0070318F10A00300F
:100D2600F1077008720784000A128A1103200A125A
:100D36008A11003A031DA02EA12E7F2E0800003036
:100D460083120313A9000030A8002530A7008030C5
:100D5600A6000A128A11C9260A128A110A128A11D3
:100D660006270A128A1183120313AA0006302A06DE
:100D7600031DBE2EBF2EB12E04300A128A117B2609
:100D86000A128A11B12E0A128A110028C030FF00F9
:100D96007F088B04831603138C1687170713981680
:100DA6008312031398179030FF007F0898042608D3
:100DB600F9002708FA002808FB002908FC0006307D
:100DC6000310F90DFA0DFB0DFC0DFF3E031DE32E7E
:100DD6007C08F3007B08F2007A08F1007908F0003D
:100DE6000030F7007A30F6001230F5000030F400DB
:100DF6000A128A115F270A128A117008FF3E8316AB
:100E06000313990008006330F2000F3083160313B2
:100E16008800F830FF007F088605F3017308013E5D
:100E260084000A128A1103200A128A1183120313FC
:100E360086002130F000F00B1E2F831203130809E1
:100E4600831603130805F100F4010130F000740A5B
:100E56002E2F0310F00DFF3E031D2C2F7008710579
:100E66000319362F372F422F7308F0000230031074
:100E7600F00DFF3E031D3A2F74087007F200013093
:100E8600FF007F08F40704307402031C4B2F4C2F1D
:100E9600282F0130FF007F08F30703307302031C7D
:100EA600552F562F112F8316031388010D30F0008E
:100EB600F00B5B2F7208080083120313A101F31FC6
:100EC600652F662F732FF009F109F209F309F00A6D
:100ED6000319F10A0319F20A0319F30AA101A10A77
:100EE600F71F762F772F862FF409F509F609F709EC
:100EF600F40A0319F50A0319F60A0319F70A013069
:100F0600FF007F08A1060030A5000030A4000030D5
:100F1600A3000030A2007308720471047004031960
:100F2600952F962FE32FA001A00AA62F0130F800D7
:100F36000310F00DF10DF20DF30DF80B9B2F0130A0
:100F4600FF007F08A007F31FA92FAA2F992F0130B2
:100F5600F8000310A20DA30DA40DA50DF80BAC2FE0
:100F660073087702031DC12F72087602031DC12F75
:100F760071087502031DC12F70087402031CC42F6B
:100F8600C52FD42F7008F4027108031C710FF502E7
:100F96007208031C720FF6027308031C730FF70224
:100FA600221401300310F30CF20CF10CF00CFF3E8E
:100FB600031DD52F0130A002031DE22FE32FAA2F18
:100FC60021080319E72FE82FF32FA209A309A40983
:100FD600A509A20A0319A30A0319A40A0319A50A53
:100FE6002508F3002408F2002308F1002208F00087
:0A0FF600080083010A128A11A22EDE
:02400E00F23F7F
:00000001FF
