:060000000A128A1110280B
:10000800FE00030EF0000408F1000A08F2007F0861
:10001800F3000A128A119D290A128A111328F7017E
:10002800F801F90183120313B601B701B801B90148
:10003800BA01BB01BC01BD01BE01BF0183010A12A7
:100048008A11C82983120313A901A31F2C282D285C
:100058003A28A009A109A209A309A00A0319A10A1B
:100068000319A20A0319A30AA901A90AA71F3D286F
:100078003E284D28A409A509A609A709A40A031919
:10008800A50A0319A60A0319A70A0130FF007F0869
:10009800A9060030AD000030AC000030AB000030E5
:1000A800AA00230822042104200403195C285D28DF
:1000B800AA28A801A80A6D280130F4000310A00D91
:1000C800A10DA20DA30DF40B62280130FF007F08DB
:1000D800A807A31F7028712860280130F4000310B6
:1000E800AA0DAB0DAC0DAD0DF40B73282308270238
:1000F800031D882822082602031D882821082502B6
:10010800031D882820082402031C8B288C289B2880
:100118002008A4022108031C210FA5022208031CA1
:10012800220FA6022308031C230FA7022A1401305A
:100138000310A30CA20CA10CA00CFF3E031D9C28CD
:100148000130A802031DA928AA2871282908031923
:10015800AE28AF28BA28AA09AB09AC09AD09AA0A82
:100168000319AB0A0319AC0A0319AD0A2D08A30039
:100178002C08A2002B08A1002A08A000080083165A
:1001880003138801F930FF007F08890583120313E0
:1001980089100911343083120313A200F130A10031
:1001A800A10BD428A20BD428831203138914F401B9
:1001B80038300A128A11ED210A128A110D30831281
:1001C8000313A200FB30A100A10BE828A20BE8282A
:1001D800F40138300A128A11ED210A128A1103300B
:1001E80083120313A2009730A100A10BF928A20BD8
:1001F800F928F40138300A128A11ED210A128A11FD
:10020800F40108300A128A11ED210A128A11F40148
:100218000F300A128A11ED210A128A11F4010130F5
:100228000A128A11ED210A128A11F4010E300A12FB
:100238008A11ED210A128A11F40180300A128A11FA
:10024800ED210A128A110800831603138717BF309D
:10025800FF007F08870598169030FF007F088312FB
:1002680003139804C030FF007F088B048316031320
:100278008C16831203132E08B2002F08B30030081F
:10028800B4003108B50006300310B20DB30DB40D3B
:10029800B50DFF3E031D48293508A3003408A20008
:1002A8003308A1003208A0000030A7007A30A60069
:1002B8001230A5000030A4000A128A1126200A1262
:1002C8008A11831203132008FF3E83160313990033
:1002D800080083120313A100A2018729F401F40A7C
:1002E8002208210784000A128A1111220A128A118F
:1002F8000A128A11ED210A128A110130FF007F08C3
:1003080083120313A2072208210784000A128A1104
:1003180011220A128A11003A031D9329942972297D
:10032800F401F40A3D300A128A11ED210A128A11E9
:100338000800831203138C1EA229A329BD2979085A
:10034800363E84001A08831380007908363E8400FC
:100358000D300006031DB129B229B8297908363EA7
:1003680084008001F801F80A0130FF007F08F907CE
:100378008C127308FF0072088A0071088400700EDE
:100388008300FE0E7E0E09000A128A11C3200A128B
:100398008A11003083120313B1000030B0002530F9
:1003A800AF008030AE000A128A1128210A128A1181
:1003B80078080319E029E129DC2901300A128A1199
:1003C8006D210A128A11F801F901DC290A128A1131
:1003D800102883120313A000891420088800740CC5
:1003E800031C0911031809150830F600C930F50077
:1003F800F50BFC29F60BFC29012A8312031389103B
:100408000830F600C930F500F50B082AF60B082A63
:100418000D2A831203138914080002308A00040885
:10042800840A820700346334693461346F340034D9
:02400E00F23F7F
:00000001FF
