:060000000A128A1110280B
:10000800FE00030EF0000408F1000A08F2007F0861
:10001800F3000A128A110C2A0A128A111328831271
:100028000313B201B301B401B501B601B701B801B8
:10003800B901BA01BB01BC01BD01BE0183010A12AD
:100048008A11DA2983120313A901A31F2C282D284A
:100058003A28A009A109A209A309A00A0319A10A1B
:100068000319A20A0319A30AA901A90AA71F3D286F
:100078003E284D28A409A509A609A709A40A031919
:10008800A50A0319A60A0319A70A0130FF007F0869
:10009800A9060030AD000030AC000030AB000030E5
:1000A800AA00230822042104200403195C285D28DF
:1000B800AA28A801A80A6D280130F4000310A00D91
:1000C800A10DA20DA30DF40B62280130FF007F08DB
:1000D800A807A31F7028712860280130F4000310B6
:1000E800AA0DAB0DAC0DAD0DF40B73282308270238
:1000F800031D882822082602031D882821082502B6
:10010800031D882820082402031C8B288C289B2880
:100118002008A4022108031C210FA5022208031CA1
:10012800220FA6022308031C230FA7022A1401305A
:100138000310A30CA20CA10CA00CFF3E031D9C28CD
:100148000130A802031DA928AA2871282908031923
:10015800AE28AF28BA28AA09AB09AC09AD09AA0A82
:100168000319AB0A0319AC0A0319AD0A2D08A30039
:100178002C08A2002B08A1002A08A000080083165A
:1001880003138801F930FF007F08890583120313E0
:10019800891009113430F900F130F800F80BD22831
:1001A800F90BD228D728831203138914F4013830A5
:1001B8000A128A1137220A128A110D30F900FB300F
:1001C800F800F80BE528F90BE528EA28F40138309F
:1001D8000A128A1137220A128A110330F90097305D
:1001E800F800F80BF528F90BF528FA28F40138304F
:1001F8000A128A1137220A128A11F40108300A12E7
:100208008A1137220A128A11F4010F300A128A1150
:1002180037220A128A11F40101300A128A11372290
:100228000A128A11F4010E300A128A1137220A12B0
:100238008A11F40180300A128A1137220A128A11AF
:100248000800831603138717BF30FF007F08870550
:1002580098169030FF007F08831203139804C0306B
:10026800FF007F088B04831603138C168312031375
:100278002E08F5002F08F6003008F7003108F800BE
:1002880006300310F50DF60DF70DF80DFF3E031DB2
:1002980045297808A3007708A2007608A100750808
:1002A800A0000030A7007A30A6001230A500003068
:1002B800A4000A128A1126200A128A118312031333
:1002C8002008FF3E831603139900080083120313C6
:1002D800A100A201A0019629A3012308303EF40041
:1002E800003003180130F50022082107F6007608CF
:1002F8008400000874067504031D8329842988294D
:100308002308FF007F08A0070130FF007F08A3072C
:100318000A302302031C9129922971290130FF0018
:100328007F08A20722082107F400740884008313B9
:100338000008031DA029A12970292008080083129C
:100348000313A000A101BB29F401F40A2108200726
:10035800F8007808840000080A128A1137220A1265
:100368008A110130FF007F0883120313A1072108B7
:100378002007F8007808840083130008031DC529A6
:10038800C629A829F401F40A3D300A128A11372235
:100398000A128A11F401F40A831203133208303E58
:1003A8000A128A1137220A128A1108000A128A11BF
:1003B800C3200A128A11003083120313B1000030DF
:1003C800B0002530AF008030AE000A128A11252116
:1003D8000A128A118312031333080319F429F52921
:1003E800EE2935300A128A116A210A128A118312FB
:1003F8000313B20035300A128A11A3210A128A1196
:1004080083120313B301B401EE290A128A111028CA
:10041800831203138C1E112A122A2C2A3408353E03
:1004280084001A08831380003408353E84000D3098
:100438000006031D202A212A272A3408353E840075
:100448008001B301B30A0130FF007F08B4078C12A2
:100458007308FF0072088A0071088400700E830018
:10046800FE0E7E0E0900F700831203138914770825
:100478008800740C031C0911031809150830F600CC
:10048800C930F500F50B462AF60B462A4B2A83128B
:10049800031389100830F600C930F500F50B522A0D
:0E04A800F60B522A572A8312031389140800F8
:02400E00F23F7F
:00000001FF
