:060000000A128A1110280B
:10000800FE00030EF3000408F4000A08F5007F0858
:10001800F6000A128A11C82B0A128A1113280A122A
:100028008A11A8240A128A11CD000A128A11A92459
:100038000A128A11CE000A128A11AA240A128A11F7
:10004800CF000A128A11AB240A128A11D0000A12B0
:100058008A11AC240A128A11D10083133930840022
:100068004D300A128A11A0240A128A1183010A1239
:100078008A113E280A128A11D5220A128A110030E2
:1000880083120313B2000030B1002530B000803075
:10009800AF000A128A118E230A128A1104308312C1
:1000A8000313A4008030A5000A128A1102240A1240
:1000B8008A1183120313A001C0300A128A1169241D
:1000C8000A128A110630831603139F002030850018
:1000D800831603138801831203133908031975283B
:1000E80076288828B901BA010A128A115B220A12F5
:1000F8008A113D3083120313A4000030A5000A12B0
:100108008A1102240A128A110A128A11C1210A12BA
:100118008A1183120313BC0063303C06031D952823
:1001280096289828BB016C2837303C06031D9D286B
:100138009E28F3286C2829300A128A113A240A12B8
:100148008A116C282B300A128A113A240A128A1151
:100158006C282D300A128A113A240A128A116C2846
:100168002F300A128A113A240A128A116C28313067
:100178000A128A113A240A128A116C2833300A1298
:100188008A113A240A128A116C2835300A128A1107
:100198003A240A128A116C2837300A128A113A2432
:1001A8000A128A116C2839300A128A113A240A1262
:1001B8008A116C2827300A128A113A240A128A11E5
:1001C8006C2823300A128A113A240A128A116C28E0
:1001D80025300A128A113A240A128A116C283C081E
:1001E800B700B8013808003A0319FB286C2837080B
:1001F800003A0319DE28013A0319C928033A0319FA
:10020800B428013A03199F28073A0319E528013A47
:100218000319D028033A0319BB28013A0319A62861
:100228000F3A0319EC28013A0319D728033A03199E
:10023800C228013A0319AD286C280A128A1110281D
:1002480083120313AA01A31F2A292B293829A009DD
:10025800A109A209A309A00A0319A10A0319A20A5C
:100268000319A30AAA01AA0AA71F3B293C294B295B
:10027800A409A509A609A709A40A0319A50A031927
:10028800A60A0319A70A0130FF007F08AA06003052
:10029800AE000030AD000030AC000030AB002308E9
:1002A80022042104200403195A295B29A829A90139
:1002B800A90A6B290130A8000310A00DA10DA20DF9
:1002C800A30DA80B60290130FF007F08A907A31F11
:1002D8006E296F295E290130A8000310AB0DAC0D03
:1002E800AD0DAE0DA80B712923082702031D862921
:1002F80022082602031D862921082502031D8629B6
:1003080020082402031C89298A2999292008A40283
:100318002108031C210FA5022208031C220FA60294
:100328002308031C230FA7022B1401300310A30C6E
:10033800A20CA10CA00CFF3E031D9A290130A902B2
:10034800031DA729A8296F292A080319AC29AD2953
:10035800B829AB09AC09AD09AE09AB0A0319AC0A57
:100368000319AD0A0319AE0A2E08A3002D08A2002E
:100378002C08A1002B08A000080063308312031387
:10038800A6003F3083160313860083120313060961
:100398008316031306050319D229D329E929063040
:1003A80083120313A4002F30A300A30BD929A40B95
:1003B800D929DE298316031388011B300A128A11F2
:1003C8003A240A128A1137305A2A8312031305096C
:1003D8008316031305050319F229F329082A0630A1
:1003E80083120313A4002F30A300A30BF929A40B35
:1003F800F929FE2983160313880115300A128A1178
:100408003A240A128A11E7290F308800F830FF00D1
:100418007F08860583120313A7012708013E84007D
:100428000A128A114E230A128A118600203083127A
:100438000313A300A30B1E2A000083120313080949
:1004480083160313080583120313A500A8010130BE
:10045800A300280A312A0310A30DFF3E031D2F2AEB
:10046800230825050319392A3A2A452A2708A3000B
:1004780002300310A30DFF3E031D3D2A2808230761
:10048800A6000130FF007F08A80704302802031CDB
:100498004E2A4F2A2B2A0130FF007F08A707033076
:1004A8002702031C582A592A112A260808008312F1
:1004B8000313A701A70AA601A501CE2A2608213EF3
:1004C80084000A128A114E230A128A11A4002708EE
:1004D8003D3E8400831300082406031D742A752AF0
:1004E800A02A0130FF007F08A60703302606031D57
:1004F8007E2A7F2ACA2AA601A00125084D3E84002B
:100508000008803E0A128A1169240A128A1183128D
:100518000313A001A00A30300A128A1169240A12B2
:100528008A110130FF007F0883120313A5070130E9
:10053800FF007F08A707CA2AA601A62A0130FF00E4
:100548007F08A70727083D3E84007C300006031D6E
:10055800AE2AAF2AA22AA00125084D3E8400000831
:10056800803E0A128A1169240A128A11831203131F
:10057800A001A00A31300A128A1169240A128A11CC
:100588000130FF007F0883120313A5070130FF0025
:100598007F08A70710302702031CD32AD42A622A0F
:1005A8000800831603138801F930FF007F088905C6
:1005B800343083120313A500F130A400A40BE22AFF
:1005C800A50BE22A831203138914A00138300A12FA
:1005D8008A1169240A128A110D3083120313A500A7
:1005E800FB30A400A40BF62AA50BF62A83120313EA
:1005F800A00138300A128A1169240A128A110330BC
:1006080083120313A5009730A400A40B092BA50B94
:10061800092B83120313A00138300A128A116924A6
:100628000A128A1183120313A00108300A128A11D0
:1006380069240A128A1183120313A0010F300A12C7
:100648008A1169240A128A1183120313A001013046
:100658000A128A1169240A128A1183120313A0014B
:100668000E300A128A1169240A128A11831203139E
:10067800A00180300A128A1169240A128A1108001E
:10068800FF1B4E2B83137F1883170008840A031956
:10069800FF0A080003308A000408840A820700342D
:1006A800FE34FD34FB347E345634203430347C340C
:1006B8004834203430347C345234203430347C3460
:1006C800543420343034003454345234493453349C
:1006D80041340034543452344934533442340034AD
:1006E8002034203430340034233400342A340034A5
:1006F8003134003432340034333400343434003488
:100708003534003436340034373400343834003467
:100718003934003483160313871707139816831286
:100728000313981718162F08B3003008B4003108BF
:10073800B5003208B60006300310B30DB40DB50D80
:10074800B60DFF3E031DA02B3608A3003508A200F6
:100758003408A1003308A0000030A7007A30A600B2
:100768001230A5000030A4000A128A1124210A12AE
:100778008A11831203132008FF3E8316031399007E
:100788008B170B178C160800831203138C1ECD2BA6
:10079800CE2BF72B3A083D3E84001A0883138000BD
:1007A8003D080A128A118F240A128A11003A031D81
:1007B800DE2BDF2BE02BF72B831203138C123A0866
:1007C8003D3E84000D3083130006031DEC2BED2BFA
:1007D800F32B3A083D3E84008001B901B90A013083
:1007E800FF007F08BA077608FF0075088A007408BA
:1007F8008400730E8300FE0E7E0E0900831203131D
:100808003B080319082C092C0A2C392CA601A60A26
:10081800262CA001A00A260824078400250803180E
:10082800250AFF000A128A1144230A128A110A12A1
:100838008A1169240A128A110130FF007F08831285
:100848000313A60726082407840025080318250A89
:10085800FF000A128A1144230A128A11003A031D62
:10086800362C372C0D2CBB01BB0A0800831203134E
:10087800A2003B080319412C422C432C682CA001F0
:10088800A101592C0C1E492C4A2C462C2008220761
:1008980084000A128A114E230A128A119900013023
:1008A800A0070318A10A0030A10720082207840026
:1008B8000A128A114E230A128A11003A031D652C66
:1008C800662C462CBB01BB0A080083120313A30045
:1008D800891423088800200C031C09110318091522
:1008E800083083120313A200C930A100A10B7A2C8F
:1008F800A20B7A2C83120313891008308312031376
:10090800A200C930A100A10B872CA20B872C83124F
:10091800031389140800F2000030F10072087E3CCD
:10092800F000031CF1037008710403199C2C9E2C21
:1009380001309F2C0030080064008001840A0406FE
:10094800031900340406A12C023406340A340E3488
:02095800213448
:02400E00F23F7F
:00000001FF
