:020000000C28CA
:10000800FE00030EF0000A08F1007F08F2001B2929
:100018000D28F801F901FA0183120313A001A101C7
:10002800A201A301A401A501830185298312031359
:10003800A701F41F202821282828F309F409F30A26
:100048000319F40AA701A70AF61F2B282C2835281C
:10005800F509F609F50A0319F60A0130FF007F08C9
:10006800A706A801A9017308740403193C283D28B0
:100078007428A601A60A4B2801300310F30DF40DCD
:10008800FF3E031D41280130FF007F08A607F41F2B
:100098004E284F28402801300310A80DA90DFF3E17
:1000A800031D502874087602031D5C287308750226
:1000B800031C5F28602867287308F5027408031C6E
:1000C800F603F602281401300310F40CF30CFF3E7B
:1000D800031D68280130A602031D732874284F28C1
:1000E80027080319782879287E28A809A909A80AC1
:1000F8000319A90A2908F4002808F3000800831244
:100108000313A701F61F89288A289128F509F609FB
:10011800F50A0319F60AA701A70AF41F94289528D7
:100128009A28F309F409F30A0319F40A7308740402
:1001380003199F28A028CF28A601A60AAE280130B7
:100148000310F30DF40DFF3E031DA4280130FF003A
:100158007F08A607F41FB128B228A32874087602DE
:10016800031DB82873087502031CBB28BC28C228C5
:100178007308F5027408031CF603F6020130031035
:10018800F40CF30CFF3E031DC3280130A602031D27
:10019800CE28CF28B22827080319D328D428D9284D
:1001A800F509F609F50A0319F60A7608F400750840
:1001B800F3000800F70077088312031322060319D7
:1001C800E628E72807290A30F3000030F40077080A
:1001D800AA00AB012A08F5002B08F6001A207308BC
:1001E80083120313A3000A30F3000030F4007708E9
:1001F800AA00AB012A08F5002B08F6008320730833
:1002080083120313A4007A0803190B290C29132954
:100218002408013E84009B211038860018292308F1
:10022800013E84009B2186007708A20008000B1D70
:100238001E291F294E2906308312031381000B1132
:100248007A08031928292A2901302B290030FA00B5
:100258000130A0070318A10A0030A1072108803A3D
:10026800FF0083307F02031D3B29E8302002031C76
:100278003E293F294E2979080319432944294A2947
:100288000130FF007F0883120313A50783120313AD
:10029800A001A1017208FF0071088A00700E830096
:1002A800FE0E7E0E09008312031305091E39F500A0
:1002B800F51C5F2960298229F81863296429822995
:1002C8000D30F400FB30F300F30B6829F40B6829B8
:1002D8006D298312031305091E39F500F51C7529CC
:1002E80076298229F81879297A298229790803191F
:1002F8007E298029013081290030F9007508F8002D
:10030800080083160313860102308500A0308B0095
:10031800023081000630831203138100A501F90120
:100328005721831203132508DE2094290C28013055
:100338008A000408840A82070034EE342834CD3455
:0E0348006D342B346734E7342C34EF346F34CB
:02400E00623F0F
:00000001FF
