:060000000A128A1110280B
:10000800FE00030EF0000408F1000A08F2007F0861
:10001800F3000A128A1164290A128A111328831319
:100028002030840036300A128A1100220A128A11FE
:1000380083010A128A118F2983120313BF01B91F82
:10004800262827283428B609B709B809B909B60AED
:100058000319B70A0319B80A0319B90ABF01BF0A75
:10006800BD1F372838284728BA09BB09BC09BD096C
:10007800BA0A0319BB0A0319BC0A0319BD0A0130DD
:10008800FF007F08BF060030C3000030C200003008
:10009800C1000030C0003908380437043604031999
:1000A80056285728A428BE01BE0A67280130F40044
:1000B8000310B60DB70DB80DB90DF40B5C2801305F
:1000C800FF007F08BE07B91F6A286B285A2801302D
:1000D800F4000310C00DC10DC20DC30DF40B6D2843
:1000E80039083D02031D822838083C02031D822876
:1000F80037083B02031D822836083A02031C85286C
:10010800862895283608BA023708031C370FBB0221
:100118003808031C380FBC023908031C390FBD020C
:10012800401401300310B90CB80CB70CB60CFF3EE4
:10013800031D96280130BE02031DA328A4286B289E
:100148003F080319A828A928B428C009C109C20969
:10015800C309C00A0319C10A0319C20A0319C30A49
:100168004308B9004208B8004108B7004008B60083
:100178000800831603138801F930FF007F088905FA
:1001880083120313891009113430F900F130F80093
:10019800F80BCC28F90BCC28D12883120313891427
:1001A800F40138300A128A11DC210A128A110D3042
:1001B800F900FB30F800F80BDF28F90BDF28E428FA
:1001C800F40138300A128A11DC210A128A1103302C
:1001D800F9009730F800F80BEF28F90BEF28F4280E
:1001E800F40138300A128A11DC210A128A11F4014A
:1001F80008300A128A11DC210A128A11F4010F3020
:100208000A128A11DC210A128A11F40101300A1239
:100218008A11DC210A128A11F4010E300A128A119D
:10022800DC210A128A11F40180300A128A11DC21B9
:100238000A128A110800831603138717BF30FF00BC
:100248007F08870598169030FF007F0883120313F4
:100258009804C030FF007F088B04831603138C16A4
:10026800831203134408F5004508F6004608F70012
:100278004708F80006300310F50DF60DF70DF80DD8
:10028800FF3E031D3F297808B9007708B8007608B3
:10029800B7007508B6000030BD007A30BC001230D7
:1002A800BB000030BA000A128A1120200A128A11F3
:1002B800831203133608FF3E8316031399000800C0
:1002C800831203138C1E69296A2984298C122A082F
:1002D8002C3E84001A08831380002A082C3E8400D0
:1002E8000D300006031D79297A2980292A082C3E19
:1002F80084008001AB01AB0A0130FF007F08AA0728
:100308007308FF0072088A0071088400700E830069
:10031800FE0E7E0E0900003083120313C700003062
:10032800C6002530C5008030C4000A128A111F217A
:100338000A128A110A128A11BD200A128A11F401BE
:1003480001300A128A11DC210A128A112C300A1291
:100358008A11B8210A128A1183120313AB01AA0168
:10036800A3290A128A11102883120313B600B701B1
:10037800D029F401F40A37083607F8007808840011
:1003880000080A128A11DC210A128A110130FF00C2
:100398007F0883120313B70737083607F800780871
:1003A800840083130008031DDA29DB29BD2908000E
:1003B800F70083120313891477088800740C031C50
:1003C8000911031809150830F600C930F500F50BB6
:1003D800EB29F60BEB29F029831203138910083057
:1003E800F600C930F500F50BF729F60BF729FC29BB
:1003F800831203138914080064008001840A040628
:08040800031900340406012A67
:02400E00F23F7F
:00000001FF
