:060000000A128A11FC2F18
:100F46008316031386018801FF308500870111305F
:100F5600831203139F008030831603139F008312AE
:100F6600031387160D30F000F00BB72F831203130F
:100F76001F151F19BF2FC02FBC2F831603131E0862
:100F86008312031386001E0888001E08F3008316CA
:100F960003131E08F2007308803AFF0080307F02B8
:100FA600031DD72F52307202031CDA2FDB2FDF2FDF
:100FB600831203130715EF2F7308803AFF00803062
:100FC6007F02031DE82F4F3072020318EB2FEC2F20
:100FD600EF2F8312031307113430F100F130F000C4
:100FE600F00BF32FF10BF32FF82FB92F0A128A11FA
:0A0FF600002883010A128A11A32FBC
:02400E00F23F7F
:00000001FF
