:060000000A128A11FC2F18
:100F60008316031386018801FF3085008701113045
:100F7000831203139F008030831603139F00831294
:100F8000031387160D30F000F00BC42F83120313E8
:100F90001F151F19CC2FCD2FC92F831603131E0821
:100FA0008312031386001E0888001E08F3008316B0
:100FB00003131E08F2007308803AFF0080307F029E
:100FC000031DE42F51307202031CE72FE82FEC2F92
:100FD000831203130715EF2F831203130711343005
:100FE000F100F130F000F00BF32FF10BF32FF82F9D
:100FF000C62F0A128A11002883010A128A11B02F03
:02400E00F23F7F
:00000001FF
