:100000000A128A11EE2F00308A000408840A82073F
:1000100000345334653463346F346E346434613483
:1000200020347234693467346134003443346934C1
:1000300061346F3420346134203474347534743452
:0600400074346934003441
:100E000043346F346E34743469346E3475346934F9
:100E100061346D346F347E088A007F0882000A12C4
:100E20008A110B270A128A118000840A04087D06A1
:100E300003190034FF0A0319FE0A0F2F0A128A1140
:100E40008C270A128A11F00183300A128A11412775
:100E50000A128A110E300A128A1165270A128A11A3
:100E6000F001C3300A128A1141270A128A11013097
:100E70000A128A1165270A128A113D2F0A128A1155
:100E80000028F30083120313891473088800700C80
:100E9000031C0911031809150830F200C930F100CC
:100EA000F10B502FF20B502F552F83120313891083
:100EB0000830F200C930F100F10B5C2FF20B5C2F0F
:100EC000612F8312031389140800F600F401F50161
:100ED0007E2FF001F00A7408760784000A128A1146
:100EE00003200A128A110A128A1141270A128A1152
:100EF0000130F4070318F50A0030F5077408760787
:100F000084000A128A1103200A128A11003A031D72
:100F10008A2F8B2F692F0800831603138801F9305D
:100F2000FF007F08890583120313091189103430EB
:100F3000F500F130F400F40B9B2FF50B9B2FA02F45
:100F4000831203138914F00138300A128A114127E1
:100F50000A128A110D30F500FB30F400F40BAE2FAD
:100F6000F50BAE2FB32FF00138300A128A1141274A
:100F70000A128A110330F5009730F400F40BBE2FEB
:100F8000F50BBE2FC32FF00138300A128A1141270A
:100F90000A128A11F00108300A128A1141270A1236
:100FA0008A11F0010F300A128A1141270A128A11A0
:100FB000F00101300A128A1141270A128A11F00148
:100FC0000E300A128A1141270A128A11F00180306C
:100FD0000A128A1141270A128A11080083132B3042
:100FE000FD000730FE000030FF00203084000A12B0
:100FF0008A110F270A128A1183010A128A111E2FE1
:02400E00F23F7F
:00000001FF
