:100000000A128A11F82F00308A000408840A820735
:100010000034FE34FD34FB34543452344934533408
:10002000413400345434523449345334423400346B
:100030006334693461346F340034233400342A3437
:10004000003430340034313400343234003433344A
:10005000003434340034353400343634003437342A
:0A0060000034383400343934003421
:100BFC00F30083120313891473088800700C031C10
:100C0C000911031809150830F200C930F100F10B75
:100C1C000D2EF20B0D2E122E831203138910083099
:100C2C00F200C930F100F10B192EF20B192E1E2E09
:100C3C008312031389140800F50083120313200890
:100C4C000319292E2A2E2B2E512EF401402EF001A1
:100C5C00F00A7408750784000A128A1103200A121C
:100C6C008A110A128A11FE250A128A110130FF001C
:100C7C007F08F4077408750784000A128A11032090
:100C8C000A128A11003A031D4C2E4D2E2D2E831262
:100C9C000313A001A00A0800831603138801F9307E
:100CAC00FF007F0889053430F500F130F400F40BB7
:100CBC005D2EF50B5D2E622E831203138914F00149
:100CCC0038300A128A11FE250A128A110D30F500ED
:100CDC00FB30F400F40B702EF50B702E752EF0011A
:100CEC0038300A128A11FE250A128A110330F500D7
:100CFC009730F400F40B802EF50B802E852EF0012E
:100D0C0038300A128A11FE250A128A11F0010830B5
:100D1C000A128A11FE250A128A11F0010F300A12EA
:100D2C008A11FE250A128A11F00101300A128A1169
:100D3C00FE250A128A11F0010E300A128A11FE25C4
:100D4C000A128A11F00180300A128A11FE250A1249
:100D5C008A1108006330F9003F30831603138600B4
:100D6C008312031306098316031306050319BF2EFA
:100D7C00C02ED42E0630F7003030F600F60BC42E01
:100D8C00F70BC42E00008316031388010A300A12D5
:100D9C008A1122260A128A1137303E2F831203132E
:100DAC0005098316031305050319DD2EDE2EF12E1E
:100DBC000630F7003030F600F60BE22EF70BE22E81
:100DCC00000083160313880104300A128A112226AC
:100DDC000A128A11D22E0F308800F830FF007F08DB
:100DEC008605FA017A08013E84000A128A11032052
:100DFC000A128A118312031386002130F600F60BB7
:100E0C00052F831203130809831603130805F80032
:100E1C00FB010130F6007B0A152F0310F60DFF3E87
:100E2C00031D132F7608780503191D2F1E2F292F4C
:100E3C007A08F60002300310F60DFF3E031D212F39
:100E4C007B087607F9000130FF007F08FB070430B0
:100E5C007B02031C322F332F0F2F0130FF007F0832
:100E6C00FA0703307A02031C3C2F3D2FF82E790829
:100E7C0008000A128A1152260A128A1110300A121C
:100E8C008A1122260A128A11F001C0300A128A1124
:100E9C00FE250A128A110630831603139F00203098
:100EAC0085000A128A11B0260A128A1183120313C2
:100EBC00A10063302106031D642F652F672FA0014D
:100ECC00572F83160313880137308312031321061F
:100EDC00031D712F722FC72F572F1B300A128A1127
:100EEC0022260A128A11572F1D300A128A11222625
:100EFC000A128A11572F1F300A128A1122260A123F
:100F0C008A11572F21300A128A1122260A128A11AD
:100F1C00572F23300A128A1122260A128A11572FB0
:100F2C0025300A128A1122260A128A11572F2730CD
:100F3C000A128A1122260A128A11572F29300A12F4
:100F4C008A1122260A128A11572F2B300A128A1163
:100F5C0022260A128A11572F17300A128A112226BA
:100F6C000A128A11572F19300A128A1122260A12D4
:100F7C008A11572F15300A128A1122260A128A1149
:100F8C00572F2108FC00FD017D08003A0319CF2FD3
:100F9C00572F7C08003A0319B22F013A03199D2FE1
:100FAC00033A0319882F013A0319732F073A0319CF
:100FBC00B92F013A0319A42F033A03198F2F013AC1
:100FCC0003197A2F0F3A0319C02F013A0319AB2FCB
:100FDC00033A0319962F013A0319812F572F0A123E
:100FEC008A11002883120313A001A10183010A12A4
:040FFC008A113F2FE8
:02400E00F23F7F
:00000001FF
