:060000000A128A110C280F
:10000800FE00030EF0000A08F1000A128A113929CD
:100018000A128A110F2883010A128A11E82883120A
:100028000313A101F51F19281A282728F209F30933
:10003800F409F509F20A0319F30A0319F40A031972
:10004800F50AA101A10AF91F2A282B283A28F6093E
:10005800F709F809F909F60A0319F70A0319F80A5A
:100068000319F90A0130FF007F08A1060030A50036
:100078000030A4000030A3000030A200750874040A
:1000880073047204031949284A289728A001A00A72
:100098005A280130FA000310F20DF30DF40DF50D96
:1000A800FA0B4F280130FF007F08A007F51F5D28D5
:1000B8005E284D280130FA000310A20DA30DA40DEF
:1000C800A50DFA0B602875087902031D75287408B8
:1000D8007802031D752873087702031D75287208B6
:1000E8007602031C7828792888287208F602730893
:1000F800031C730FF7027408031C740FF8027508C9
:10010800031C750FF902221401300310F50CF40CCE
:10011800F30CF20CFF3E031D89280130A002031DD9
:10012800962897285E28210803199B289C28A72829
:10013800A209A309A409A509A20A0319A30A031974
:10014800A40A0319A50A2508F5002408F4002308C1
:10015800F3002208F2000800831603138717071319
:10016800981683120313981718162608AA0027084A
:10017800AB002808AC002908AD0006300310AA0D12
:10018800AB0DAC0DAD0DFF3E031DC2282D08F500CB
:100198002C08F4002B08F3002A08F2000030F900BC
:1001A8007A30F8001230F7000030F6000A128A118F
:1001B80013200A128A117208FF3E8316031399004E
:1001C8008B170B178C160800003083120313A90035
:1001D8000030A8002530A7008030A6000A128A1136
:1001E800B0200A128A1183160313880101300A12FB
:1001F8008A1112210A128A110B3083120313B000DC
:100208002630AF005D30AE00AE0B0829AF0B0829D1
:10021800B00B0829FA280A128A110C28F400F201F6
:10022800F3012B29831203130C1E1B291C291629E1
:100238007208740784000A128A1149210A128A1165
:1002480099000130F2070318F30A0030F307720827
:10025800740784000A128A1149210A128A11003A85
:10026800031D3729382916290800831203138C1E09
:100278003E293F2942291A0899008C1271088A00E0
:10028800700E8300FE0E7E0E090001308A000408FD
:10029800840A820700346334693461346F3400346B
:02400E00F23F7F
:00000001FF
