:060000000A128A1110280B
:10000800FE00030EF0000408F1000A08F2007F0861
:10001800F3000A128A1104290A128A111328F90115
:1000280083120313B301B401B501B601B701B801D6
:10003800B901BA01BB01BC0183010A128A11512915
:1000480083120313A901A31F2A282B283828A009E3
:10005800A109A209A309A00A0319A10A0319A20A5E
:100068000319A30AA901A90AA71F3B283C284B2862
:10007800A409A509A609A709A40A0319A50A031929
:10008800A60A0319A70A0130FF007F08A906003055
:10009800AD000030AC000030AB000030AA002308EF
:1000A80022042104200403195A285B28A828A8013F
:1000B800A80A6B280130F4000310A00DA10DA20DB1
:1000C800A30DF40B60280130FF007F08A807A31FC9
:1000D8006E286F285E280130F4000310AA0DAB0DBE
:1000E800AC0DAD0DF40B712823082702031D8628DB
:1000F80022082602031D862821082502031D8628BA
:1001080020082402031C89288A2899282008A40288
:100118002108031C210FA5022208031C220FA60296
:100128002308031C230FA7022A1401300310A30C71
:10013800A20CA10CA00CFF3E031D9A280130A802B6
:10014800031DA728A8286F2829080319AC28AD285B
:10015800B828AA09AB09AC09AD09AA0A0319AB0A60
:100168000319AC0A0319AD0A2D08A3002C08A20034
:100178002B08A1002A08A00008008316031387177C
:10018800071398169030FF007F0883120313980412
:10019800C030FF007F088B04831603138C1683126C
:1001A80003132E08F5002F08F6000030F61BFF3069
:1001B800F700F80006300310F50DF60DF70DF80DF1
:1001C800FF3E031DDF287808A3007708A200760801
:1001D800A1007508A0000030A7007A30A6001230F0
:1001E800A5000030A4000A128A1124200A128A11DC
:1001F800831203132008FF3E831603139900080097
:10020800831203138C1E09290A2922298C127908C2
:10021800333E84001A08831380007908333E840033
:100228000D300006031D19291A291E297908333EA5
:10023800840080010130FF007F08F9077308FF0080
:1002480072088A0071088400700E8300FE0E7E0E0C
:100258000900F400F5014329831203130C1E352904
:10026800362930297508740784000A128A11742106
:100278000A128A1199000130FF007F08F5077508F6
:10028800740784000A128A1174210A128A11003A2A
:10029800031D4F2950293029080080308312031389
:1002A800AE002530AF000A128A11C1200A128A1145
:1002B80001300A128A112D210A128A110B30831279
:1002C8000313B2002630B1005D30B000B00B6A29CC
:1002D800B10B6A29B20B6A295C290A128A11102803
:1002E80001308A000408840A8207003463346934C0
:0602F80061346F34003494
:02400E00F23F7F
:00000001FF
