:060000000A128A1110280B
:10000800FE00030EF0000408F1000A08F2007F0861
:10001800F3000A128A1196290A128A1113288312E8
:100028000313B201B301B401B501B601B701B801B8
:10003800B901BA01BB01BC01BD0183010A128A11D1
:10004800662983120313A901A31F2B282C283928FA
:10005800A009A109A209A309A00A0319A10A031961
:10006800A20A0319A30AA901A90AA71F3C283D2827
:100078004C28A409A509A609A709A40A0319A50AD1
:100088000319A60A0319A70A0130FF007F08A90669
:100098000030AD000030AC000030AB000030AA00EA
:1000A800230822042104200403195B285C28A928BA
:1000B800A801A80A6C280130F4000310A00DA10DB6
:1000C800A20DA30DF40B61280130FF007F08A807DB
:1000D800A31F6F2870285F280130F4000310AA0DB1
:1000E800AB0DAC0DAD0DF40B722823082702031DD0
:1000F800872822082602031D872821082502031DB8
:10010800872820082402031C8A288B289A2820087C
:10011800A4022108031C210FA5022208031C220F98
:10012800A6022308031C230FA7022A140130031078
:10013800A30CA20CA10CA00CFF3E031D9B280130B0
:10014800A802031DA828A928702829080319AD2882
:10015800AE28B928AA09AB09AC09AD09AA0A03193E
:10016800AB0A0319AC0A0319AD0A2D08A3002C0821
:10017800A2002B08A1002A08A00008008316031378
:100188008801F930FF007F0889058312031389105D
:1001980009113430F900F130F800F80BD128F90BC7
:1001A800D128D628831203138914F40138300A128F
:1001B8008A11E5210A128A110D30F900FB30F80086
:1001C800F80BE428F90BE428E928F40138300A127E
:1001D8008A11E5210A128A110330F9009730F800D4
:1001E800F80BF428F90BF428F928F40138300A122E
:1001F8008A11E5210A128A11F40108300A128A11BB
:10020800E5210A128A11F4010F300A128A11E52138
:100218000A128A11F40101300A128A11E5210A1220
:100228008A11F4010E300A128A11E5210A128A1184
:10023800F40180300A128A11E5210A128A11080095
:10024800831603138717071398169030FF007F084B
:10025800831203139804C030FF007F088B048316B1
:1002680003138C16831203132E08F5002F08F600CB
:100278003008F7003108F80006300310F50DF60DC8
:10028800F70DF80DFF3E031D41297808A3007708F4
:10029800A2007608A1007508A0000030A7007A30F7
:1002A800A6001230A5000030A4000A128A112520E9
:1002B8000A128A11831203132008FF3E83160313C0
:1002C80099000800003083120313B1000030B00019
:1002D8002530AF008030AE000A128A1124210A129C
:1002E8008A110A128A11C2200A128A118312031370
:1002F80032080319802981297A29F40101300A1268
:100308008A11E5210A128A1134300A128A11C12190
:100318000A128A1183120313B201B3017A290A124D
:100328008A111028831203138C1E9B299C29B62935
:100338008C123308343E84001A0883138000330873
:10034800343E84000D300006031DAB29AC29B229C8
:100358003308343E84008001B201B20A0130FF0044
:100368007F08B3077308FF0072088A0071088400C9
:10037800700E8300FE0E7E0E090083120313A00088
:10038800A101D929F401F40A21082007F800780806
:10039800840000080A128A11E5210A128A11013024
:1003A800FF007F0883120313A10721082007F80024
:1003B8007808840083130008031DE329E429C6296B
:1003C8000800F70083120313891477088800740C57
:1003D800031C0911031809150830F600C930F50087
:1003E800F50BF429F60BF429F92983120313891064
:1003F8000830F600C930F500F50B002AF60B002A84
:0A040800052A83120313891408006B
:02400E00F23F7F
:00000001FF
