:100000000A128A11FC2F00308A000408840A820731
:0C00100000346334693461346F34003410
:100DAE00803083120313A6002530A7000A128A1181
:100DBE001E270A128A1101300A128A11FA260A1205
:100DCE008A110B3083120313AA002630A9005D305E
:100DDE00A800A80BF02EA90BF02EAA0BF02EE22ED7
:100DEE000A128A110028F000F101102F831203134A
:100DFE000C1E022F032FFD2E7108700784000A129D
:100E0E008A1103200A128A1199000130FF007F080F
:100E1E00F1077108700784000A128A1103200A1262
:100E2E008A11003A031D1C2F1D2FFD2E080083165C
:100E3E0003138717071398169030FF007F0883124D
:100E4E0003139804C030FF007F088B04831603132E
:100E5E008C16831203132608F9002708FA000030B7
:100E6E00FA1BFF30FB00FC0006300310F90DFA0DE3
:100E7E00FB0DFC0DFF3E031D3C2F7C08F3007B0891
:100E8E00F2007A08F1007908F0000030F7007A30AD
:100E9E00F6001230F5000030F4000A128A115F27B6
:100EAE000A128A117008FF3E831603139900080078
:100EBE0083120313A101F31F652F662F732FF00901
:100ECE00F109F209F309F00A0319F10A0319F20AFA
:100EDE000319F30AA101A10AF71F762F772F862F88
:100EEE00F409F509F609F709F40A0319F50A0319C5
:100EFE00F60A0319F70A0130FF007F08A106003039
:100F0E00A5000030A4000030A3000030A20073083A
:100F1E007204710470040319952F962FE32FA0010C
:100F2E00A00AA62F0130F8000310F00DF10DF20DFE
:100F3E00F30DF80B9B2F0130FF007F08A007F31F66
:100F4E00A92FAA2F992F0130F8000310A20DA30D7F
:100F5E00A40DA50DF80BAC2F73087702031DC12F3E
:100F6E0072087602031DC12F71087502031DC12F71
:100F7E0070087402031CC42FC52FD42F7008F402FE
:100F8E007108031C710FF5027208031C720FF60232
:100F9E007308031C730FF702221401300310F30CB5
:100FAE00F20CF10CF00CFF3E031DD52F0130A00208
:100FBE00031DE22FE32FAA2F21080319E72FE82F95
:100FCE00F32FA209A309A409A509A20A0319A30ACA
:100FDE000319A40A0319A50A2508F3002408F20030
:100FEE002308F1002208F000080083010A128A117A
:020FFE00D72EEC
:02400E00F23F7F
:00000001FF
