:060000000A128A1110280B
:10000800FE00030EF0000408F1000A08F2007F0861
:10001800F3000A128A11712B0A128A111328F601A9
:10002800F701F801F90183120313B801B901BA0104
:10003800BB01BC01BD01BE01BF01C001C1018301FB
:100048000A128A1127280A128A1134220A128A11DE
:10005800003083120313B1000030B0002530AF0028
:100068008030AE000A128A11D1220A128A11103089
:1000780083120313A2008030A3000A128A110B23F3
:100088000A128A11F401C0300A128A119C230A123A
:100098008A110630831603139F00203085008316CB
:1000A80003138801760803195A285B286828F60183
:1000B800F701383083120313A2000030A3000A129C
:1000C8008A110B230A128A110A128A11A1210A1213
:1000D8008A11F90063307906031D7328742876287D
:1000E800F801532837307906031D7B287C28D1284E
:1000F80053281B300A128A1142230A128A115328E4
:100108001D300A128A1142230A128A1153281F30FD
:100118000A128A1142230A128A11532821300A121C
:100128008A1142230A128A11532823300A128A118B
:1001380042230A128A11532825300A128A114223AF
:100148000A128A11532827300A128A1142230A12E6
:100158008A11532829300A128A1142230A128A1155
:1001680053282B300A128A1142230A128A11532863
:1001780017300A128A1142230A128A115328193099
:100188000A128A1142230A128A11532815300A12B8
:100198008A1142230A128A115328790883120313F9
:1001A800B600B7013708003A0319DB285328360888
:1001B800003A0319BC28013A0319A728033A03197E
:1001C8009228013A03197D28073A0319C328013AEE
:1001D8000319AE28033A03199928013A0319842808
:1001E8000F3A0319CA28013A0319B528033A031923
:1001F800A028013A03198B2853280A128A111028BB
:1002080083120313A901A31F0A290B291829A0097E
:10021800A109A209A309A00A0319A10A0319A20A9C
:100228000319A30AA901A90AA71F1B291C292B29FD
:10023800A409A509A609A709A40A0319A50A031967
:10024800A60A0319A70A0130FF007F08A906003093
:10025800AD000030AC000030AB000030AA0023082D
:1002680022042104200403193A293B298829A801DA
:10027800A80A4B290130F4000310A00DA10DA20D0E
:10028800A30DF40B40290130FF007F08A807A31F26
:100298004E294F293E290130F4000310AA0DAB0D59
:1002A800AC0DAD0DF40B512923082702031D662957
:1002B80022082602031D662921082502031D662936
:1002C80020082402031C69296A2979292008A40224
:1002D8002108031C210FA5022208031C220FA602D5
:1002E8002308031C230FA7022A1401300310A30CB0
:1002F800A20CA10CA00CFF3E031D7A290130A80214
:10030800031D872988294F29290803198C298D2934
:100318009829AA09AB09AC09AD09AA0A0319AB0ABD
:100328000319AC0A0319AD0A2D08A3002C08A20072
:100338002B08A1002A08A0000800633083120313C9
:10034800A4003F30831603138600831203130609A3
:100358008316031306050319B229B329C7290630E2
:10036800F5003030F400F40BB729F50BB72900007D
:100378008316031388010A300A128A1142230A12CB
:100388008A113730332A831203130509831603139E
:1003980005050319D029D129E4290630F5003030A4
:1003A800F400F40BD529F50BD529000083160313A7
:1003B800880104300A128A1142230A128A11C529B7
:1003C8000F308800F830FF007F088605831203137A
:1003D800A5012508013E84000A128A119F220A12EB
:1003E8008A1186002130F400F40BF82983120313D4
:1003F800080983160313080583120313A300A60133
:100408000130F400260A0A2A0310F40DFF3E031DEA
:10041800082A740823050319122A132A1E2A2508F4
:10042800F40002300310F40DFF3E031D162A2608BF
:100438007407A4000130FF007F08A60704302602D5
:10044800031C272A282A042A0130FF007F08A50751
:1004580003302502031C312A322AED29240808001A
:10046800831603138801F930FF007F0889053430AB
:1004780083120313A300F130A200A20B412AA30B9D
:10048800412A831203138914F40138300A128A119D
:100498009C230A128A110D3083120313A300FB3028
:1004A800A200A20B552AA30B552AF40138300A12D0
:1004B8008A119C230A128A11033083120313A300A2
:1004C8009730A200A20B662AA30B662AF4013830E3
:1004D8000A128A119C230A128A11F40108300A129E
:1004E8008A119C230A128A11F4010F300A128A1108
:1004F8009C230A128A11F40101300A128A119C23E2
:100508000A128A11F4010E300A128A119C230A1267
:100518008A11F40180300A128A119C230A128A1166
:100528000800FF1B9F2A83137F1883170008840A7B
:100538000319FF0A080002308A000408840A8207A7
:100548000034FE34FD34FB345434523449345334CB
:10055800413400345434523449345334423400342E
:100568006334693461346F340034233400342A34FA
:10057800003430340034313400343234003433340D
:1005880000343434003435340034363400343734ED
:100598000034383400343934003483160313871791
:1005A8000713981683120313981718162E08B2000B
:1005B8002F08B3003008B4003108B5000630031026
:1005C800B20DB30DB40DB50DFF3E031DE32A35087A
:1005D800A3003408A2003308A1003208A0000030AC
:1005E800A7007A30A6001230A5000030A4000A1235
:1005F8008A1104210A128A11831203132008FF3E6C
:100608008316031399008B170B178C1608007808AC
:1006180003190F2B102B112B412B83120313A40149
:100628002E2BF401F40A2408220784002308031857
:10063800230AFF000A128A1195220A128A110A1245
:100648008A119C230A128A110130FF007F08831245
:100658000313A40724082207840023080318230A85
:10066800FF000A128A1195220A128A11003A031D04
:100678003E2B3F2B152BF801F80A080083120313B1
:10068800A20078080319492B4A2B4B2B702BA00189
:10069800A101612B0C1E512B522B4E2B2008220737
:1006A80084000A128A119F220A128A1199000130C5
:1006B800A0070318A10A0030A10720082207840018
:1006C8000A128A119F220A128A11003A031D6D2B01
:1006D8006E2B4E2BF801F80A0800831203138C1EA8
:1006E800762B772B912B7708383E84001A088313D2
:1006F80080008C127708383E84000D300006031DF8
:10070800862B872B8D2B7708383E84008001F601D5
:10071800F60A0130FF007F08F7077308FF00720828
:100728008A0071088400700E8300FE0E7E0E090098
:10073800F50083120313891475088800740C031CD0
:10074800091103180915083083120313A100C930D1
:10075800A000A00BAD2BA10BAD2B831203138910A6
:10076800083083120313A100C930A000A00BBA2BD4
:0C077800A10BBA2B831203138914080094
:02400E00F23F7F
:00000001FF
