:020000000E28C8
:10000800FE00030EF4000408F5000A08F6007F0855
:10001800F70017280F28F801F901FA01FB01FC0184
:10002800FD018301A0280B1D1A281B2854280B1139
:1000380006308312031381000130FA070318FB0A04
:100048000030FB077808F0007007013E8400B020FC
:10005800F100B020F2007B08803AF3007208803A81
:100068007302031D392871087A02031C3C283D28B5
:1000780054287D08031941284328013044280030BA
:10008800FD007D08031949284A284F2801308312AA
:10009800031386005228831203138601FA01FB0119
:1000A8007708FF0076088A0075088400740E8300BC
:1000B800FE0E7E0E09008312031305090239031987
:1000C800662867289A287C08031D6B286C289A28BC
:1000D8001A3083120313A100F830A000A00B722875
:1000E800A10B7228831203130509023903197D280D
:1000F8007E289A287C08031D822883289A280130A4
:10010800F8070318F90A0030F907FA01FB01790822
:10011800803AFF0080307F02031D94280430780263
:10012800031C972898289A28F801F90183120313C9
:1001380005090239FC0008008316031386011E30E6
:100148008500A0308B000230810006308312031333
:1001580081005F20AD280E2800308A000408840A38
:1001680082070034F4340134E8340334D0340734DB
:04017800A0340F346C
:02400E00623F0F
:00000001FF
